:020000040000fa
:080000000001040000000000f3
:020000040000fa
:040008006803000089
:020000040000fa
:04000c006803000085
:020000040000fa
:040010006803000081
:020000040000fa
:04001400680300007d
:020000040000fa
:040018006803000079
:020000040000fa
:04001c006803000075
:020000040000fa
:040020006803000071
:020000040000fa
:04002400680300006d
:020000040000fa
:040028006803000069
:020000040000fa
:04002c006803000065
:020000040000fa
:040030006803000061
:020000040000fa
:0400340008020000be
:020000040000fa
:040038006803000059
:020000040000fa
:04003c006803000055
:020000040000fa
:040040006803000051
:020000040000fa
:04004400680300004d
:020000040000fa
:040048006803000049
:020000040000fa
:04004c006803000045
:020000040000fa
:040050006803000041
:020000040000fa
:040054002c03000079
:020000040000fa
:040058006803000039
:020000040000fa
:04005c006803000035
:020000040000fa
:040060006803000031
:020000040000fa
:04006400680300002d
:020000040000fa
:040068006803000029
:020000040000fa
:04006c006803000025
:020000040000fa
:040070006803000021
:020000040000fa
:04007400680300001d
:020000040000fa
:040078006803000019
:020000040000fa
:04007c006803000015
:020000040000fa
:040080006803000011
:020000040000fa
:04008400680300000d
:020000040000fa
:040088006803000009
:020000040000fa
:04008c006803000005
:020000040000fa
:040090006803000001
:020000040000fa
:0400940068030000fd
:020000040000fa
:0400980068030000f9
:020000040000fa
:04009c0068030000f5
:020000040000fa
:0400a0000803000051
:020000040000fa
:0400a40068030000ed
:020000040000fa
:0400a80068030000e9
:020000040000fa
:0400ac0068030000e5
:020000040000fa
:0400b00068030000e1
:020000040000fa
:0400b40068030000dd
:020000040000fa
:0400b80068030000d9
:020000040000fa
:0400bc0068030000d5
:020000040000fa
:0400c00068030000d1
:020000040000fa
:0400c40068030000cd
:020000040000fa
:0400c80068030000c9
:020000040000fa
:0400cc0068030000c5
:020000040000fa
:0400d00068030000c1
:020000040000fa
:0400d40068030000bd
:020000040000fa
:0400d80068030000b9
:020000040000fa
:0400dc0068030000b5
:020000040000fa
:0400e00068030000b1
:020000040000fa
:0400e40068030000ad
:020000040000fa
:0400e80068030000a9
:020000040000fa
:0400ec0068030000a5
:020000040000fa
:0400f00068030000a1
:020000040000fa
:0400f400680300009d
:020000040000fa
:0400f8006803000099
:020000040000fa
:0400fc006803000095
:020000040000fa
:040100006803000090
:020000040000fa
:04010400680300008c
:020000040000fa
:040108006803000088
:020000040000fa
:04010c006803000084
:020000040000fa
:040110006803000080
:020000040000fa
:04011400680300007c
:020000040000fa
:040118006803000078
:020000040000fa
:04011c006803000074
:020000040000fa
:040120006803000070
:020000040000fa
:04012400680300006c
:020000040000fa
:040128006803000068
:020000040000fa
:04012c006803000064
:020000040000fa
:040130006803000060
:020000040000fa
:04013400680300005c
:020000040000fa
:040138006803000058
:020000040000fa
:04013c006803000054
:020000040000fa
:040140006803000050
:020000040000fa
:04014400680300004c
:020000040000fa
:040148006803000048
:020000040000fa
:04014c006803000044
:020000040000fa
:040150006803000040
:020000040000fa
:04015400680300003c
:020000040000fa
:040158006803000038
:020000040000fa
:04015c006803000034
:020000040000fa
:040160006803000030
:020000040000fa
:04016400680300002c
:020000040000fa
:040168006803000028
:020000040000fa
:04016c006803000024
:020000040000fa
:040170006803000020
:020000040000fa
:04017400680300001c
:020000040000fa
:040178006803000018
:020000040000fa
:04017c006803000014
:020000040000fa
:040180006803000010
:020000040000fa
:04018400680300000c
:020000040000fa
:040188006803000008
:020000040000fa
:04018c006803000004
:020000040000fa
:040190006803000000
:020000040000fa
:0401940068030000fc
:020000040000fa
:0401980068030000f8
:020000040000fa
:04019c0068030000f4
:020000040000fa
:0401a00068030000f0
:020000040000fa
:0401a40068030000ec
:020000040000fa
:0401a80068030000e8
:020000040000fa
:0401ac0068030000e4
:020000040000fa
:0401b00068030000e0
:020000040000fa
:0401b40068030000dc
:020000040000fa
:0401b80068030000d8
:020000040000fa
:0401bc0068030000d4
:020000040000fa
:0401c00068030000d0
:020000040000fa
:0401c40068030000cc
:020000040000fa
:0401c80068030000c8
:020000040000fa
:0401cc0068030000c4
:020000040000fa
:0401d00068030000c0
:020000040000fa
:0401d40068030000bc
:020000040000fa
:0401d80068030000b8
:020000040000fa
:0401dc0068030000b4
:020000040000fa
:0401e00068030000b0
:020000040000fa
:0401e40068030000ac
:020000040000fa
:0401e80068030000a8
:020000040000fa
:0401ec0068030000a4
:020000040000fa
:0401f00068030000a0
:020000040000fa
:0401f400680300009c
:020000040000fa
:0401f8006803000098
:020000040000fa
:0401fc006803000094
:020000040000fa
:100200008fcf20000eff27000e01880000000000a5
:10021000000020000000e000020032000001200089
:1002200020028800140007002b0107000000e000f6
:1002300003003a00a0b522000100200002003700b0
:100240000000200001002000810f7000010032003a
:1002500014000700000020000000e000020032004f
:1002600000000200000000004c230200000000001b
:100270000040da000000fe004440a900c00f20004a
:100280000000e00003003200002020009001880000
:100290004440a800000006008a1f78008b1f7800e9
:1002a00000000600a1028800800478000000eb0036
:1002b0001f003700e284440054a0b4009905ba003e
:1002c000e284440054a0b4009906ba00e2844400d9
:1002d00054a0b4000006eb00476fde00fd07b2003b
:1002e000ae018800636ce10003003a00eaff0700fa
:1002f0000000eb000e003700606ce10008003a00df
:10030000004deb000a05e800020039003420ec0043
:100310000af0a0008b05e900f9ff3e000400370059
:100320006168e100010032000086eb000b0007006d
:1003300019c7ba001905ba000e04e00003003a001c
:100340000a00e000dbff3a0000000600fe07b200f2
:10035000ae0288008a047800f5ff37000cd0a300b5
:10036000e20f4d001c00390089027800354dba00bb
:100370000a05e800020039003420ec000af0a00071
:100380008b05e9000f003200254dba000a05e80090
:10039000020039003420ec000af0a0008b05e900cf
:1003a000080032000c00e0000600320015cdba0053
:1003b0000a05e800020039003420ec000af0a00031
:1003c0008b05e9008984e80054a0b4000b00e0002c
:1003d000e2ff3a00000006009902ba00055d7800cd
:1003e0008b05e900f7ff3200c82ade00055d7800c2
:1003f0008b05e900f3ff32000c00e000f1ff320052
:1004000019ddba00eeff3700c80504000000000047
:10041000809fbe00829fbe000200fa00c0048000e0
:10042000680060000000e0007400320040048000ba
:10043000680060000000e000700032000040eb0047
:10044000004f7800380037001e4078000080fb0025
:100450006600b9008000780000c7200000804000de
:1004600010407800e14f50002c003a001e40780008
:100470000080fb006600b900000078008080e80082
:1004800000c7200000804000100078000000e0005d
:10049000100032001e4078008081fb001e40780072
:1004a0000080fb006600b900000078008080e80052
:1004b00000c7200000804000100078000001e90023
:1004c0006618b9008000780020c720000080400036
:1004d000020878001e4078000080fb006600b9002a
:1004e000000078008080e80000c720000080400005
:1004f000100078000000e00008003a001e4078007c
:100500000080fb006600b9008000780000c7200072
:10051000008040008040eb00014878001e407800d9
:100520000040e800004f78001e407800e94f50007e
:10053000c5ff36000040eb00004f78002500370073
:100540001e4078000080fb004300dd00e400400016
:10055000208b2000008040001000be00e00f500003
:10056000e08f5800180032001e4078000081fb0028
:100570004310dd00e4004000208b2000008040009c
:100580001000be0061005000e0805800c311dd0083
:10059000628b2000028141000089be001e4078006d
:1005a0000080fb004300dd00e4004000208b2000c1
:1005b000008040001000be00e00f5000e08f5800a7
:1005c00001003a001028ef001e4078000040e800cb
:1005d000004f78009e4078000cc8bf0080cf5000cc
:1005e000d7ff3900d04180000000e0000300320056
:1005f000d04180000000e900d04188008860a90057
:100600000080fa004f01be004f00be00004006000f
:10061000801f78000000fa00801d800061006000eb
:100620000000e00009003200a01d800000407800ba
:1006300040e8b70040c8bf000004e00003003200fb
:1006400040c8bf000000fb00901d88000080fa0039
:100650004f007800004006003600f800809fbe0082
:10066000829fbe00849fbe00869fbe000000fa00ed
:10067000c104800000802000008060000000e000d5
:100680000b003200410480000080200000806000e8
:100690000000e0000600320001003700cd0a07002c
:1006a000d01c8000610060000000e000fbff3a0009
:1006b0008960a9000080fa004f03be004f02be000f
:1006c0004f01be004f00be003600f900004006009a
:1006d0000040da000000fe0000000500889fbe0018
:1006e0008a9fbe008c1f78006a00070071003300eb
:1006f00003866c006450e1002e0032006420e100ab
:10070000330032006150e1002f0032006120e1002f
:100710003100320085855500eb07b000090020004c
:1007200008042000050037000804440089844c00b8
:100730000a0031000603430087834b000001530089
:1007400081815b00f8ff33000203be000800a000b7
:100750000804440089844c00f6ff3900c639dd00e6
:100760008301730001003200130020008904d100ce
:100770000884d3000998a300050032000800a700f0
:100780000300a0008904d1000884d3008b05e80091
:100790008904d1000884d3000001eb000281d2005b
:1007a0001600070001f0a1000cf0a70001f0a00066
:1007b000490037006420e1004b0032000801be0010
:1007c0000200be00f7ff37006120e1004600320062
:1007d0006000b800f3ff37000000200001f8270098
:1007e000f0ff37001400200076003700f4ff2f00e0
:1007f000740037006011b8008d00370081002000c0
:10080000618055000b003d000b00200061fe2f00b1
:100810000100e1001d00340082817100610164006b
:100820008904d1000884d3000000e800faff3a00f0
:10083000710020006100640003007000020060008d
:100840000900320061044400e0844c000988a500de
:10085000050032008b05e8006808e10002003a005c
:100860008904d1000884d300f20f20000258e1006f
:1008700005003d00c75ddd00f907b2008980750005
:1008800008007800000006000bf827008b007800b5
:10089000000005000004be00940007000003be0035
:1008a0000405be000200be0090000700844f7500e2
:1008b000000006000200be006450e10005003600a2
:1008c0006420e100020036000968a30001003a003c
:1008d0000800be000160a0004f0678004f05be0072
:1008e0004f04be0000000600f0ff2f00f1ff2700bc
:1008f000f9ff3700889fbe008a9fbe008c1f7800da
:10090000e4ff0700ebff330003866c006450e10056
:10091000240032006420e100270032006150e10031
:10092000220032006120e100210032008b8542006c
:10093000eb07b1000134b800003ab80008044200e7
:1009400089844a00013ab8000030b800888040002d
:1009500009014a0004003300000040008180480083
:10096000020149008b05e900c909dd00830170001f
:100970000100320013002000c814de004814dd001e
:100980004709de001200b200c808de0008847000cb
:100990009aff070001f0a1000cf0a70001f0a000f1
:1009a000cdff37006120e100cfff32000801be001b
:1009b0000200be00f7ff37006150e100fcff3a0083
:1009c000c9ff3700889fbe008a9fbe00841f780041
:1009d000b0ff07004f00780011003300f0ff2f0038
:1009e000838f6c0006003b00040565000a00a70029
:1009f0000800370009f0a6001000200008003700aa
:100a0000820f5400838f5c00030039001000200027
:100a100001003e000000200009f0a7000000ea00ed
:100a20004f05be004f04be000000e00000000600bd
:100a3000889fbe008a9fbe00008270000402710081
:100a400004827100260032000004be000200be00d5
:100a50006011b8006b092000950220000182cf00d0
:100a60000a0039000541b1000082cf0007003900bb
:100a70000541b1000982cf00040039000541b100f1
:100a80000882cf00010039000541b1000542520043
:100a9000120032000a003b00828171006101640093
:100aa0008100d1000080d3008984d3000884d30062
:100ab0008b05e8000442e800f7ff3a000700370022
:100ac0000804440089844c000000480081804800ec
:100ad0008b05e9000442e900f9ff3a0047ff0700ef
:100ae0004f05be004f04be0000000600c70ade002e
:100af000f107b200f50fb20008003200e1cf42006a
:100b0000020032000170a00024000500810f700077
:100b1000010032000408050044000500810f700048
:100b200002003a00140005008502e90000004000c0
:100b300081c04800fcff3b000170a00024000500bc
:100b40008001780002003700b15978000201e90005
:100b50000200e000fcff3a0000000600800178007f
:100b600002003700815978000201e9000200e0002c
:100b7000fcff3a00000006008000780001017800c8
:100b80003104e000fdff3a000000510000000600c3
:100b9000881f78000204780008017800e8ff070049
:100ba000080040004f047800000006000000fa0032
:100bb000881f780000047800ea8157003fb9970049
:100bc00088007800805c2000070007000000e0003b
:100bd000020035008040eb00017478004f0478007b
:100be0000080fa00000006006200fa00889fbe0044
:100bf0008a1f7800000578008104780002047800dc
:100c00008300780080f92f000f004000b103070037
:100c10009a979f00a9979f000000eb00b09f9f004c
:100c20001885fb008a04fb000a05ea004f55de0028
:100c300050022000808f54000d003200e10f55005b
:100c40000b003a000a017800880078002f90970086
:100c50009f91970003000100a0979f000000e00013
:100c60008e0032003f9897000000e800b09f9f0080
:100c70000a04440050022000808f54000400320017
:100c80000900e000e6ff3a003f9897008400370033
:100c90000000eb00909f9f00809f9f00f0979f00b7
:100ca000e0979f00d0979f00c0979f0007003700f4
:100cb00021ce2000010050000000400061cd200046
:100cc00061007800df98970001007000d09f9f00be
:100cd0008804780009047800384578008a00fb0011
:100ce00020ce2000840107000000e000f0ff3a0061
:100cf000a1c2b300814f55000e003a00cf88970083
:100d00000180e900c08f9f0010007800c09f9f0005
:100d10000000e00005003d000000ea00c09f9f00c9
:100d20005f9897000020a000d09f9f000904e80072
:100d30000f003700c09f9f000000eb000500370048
:100d4000f2ff2700820f5000020032006a01b90052
:100d5000028040000904780088047800b900fb0094
:100d60000103b100e98f5000f5ff3600c09f9f00de
:100d7000e0c2b300984f1000020032000080eb0088
:100d800019003700a0c2b300d84f100007003a0086
:100d9000cf8897000180e900c08f9f001000780085
:100da000a09f9f000804e800100037000000eb003f
:100db000a09f9f008800780005003700f3ff270000
:100dc000830f5000020032006a02b90004004100a3
:100dd00001047800880078003101fb000203b100b3
:100de000e90f5100f5ff3600a09f9f00984478005e
:100df0008900fb00e0cc20003f0107000000e0007c
:100e0000020032000804e800010037008044eb00d3
:100e1000c97f9f0080c6b30080cf540004003a0011
:100e200098cf14000a003a006640500006003700d0
:100e3000c0c6b30080cf540005003a0098cf14001c
:100e400003003a0065404000c07f9f000804e800ae
:100e50001801fb00e3fb2f008f81410081f92f0077
:100e60008f804000a0f92f000f0040001000070005
:100e70000000e00009003a00e1fb2f008f804000f5
:100e8000a0f92f000f004000560207000000e0000c
:100e9000020035000804e80061ff37000080eb0025
:100ea0004f0578004f04be000080fa0000000600e5
:100eb000889fbe008a9fbe00e4c6b300844f5100e5
:100ec000be00320010003c006b425200844f5100c3
:100ed0001800320005003c0054c2b300844f51009a
:100ee000f600320084c5b3000f00370044c6b300db
:100ef000844f51001400320065424200844f51007b
:100f0000f1003a001000370004c7b300844f5100cd
:100f1000dd0032005600350065424200844f51002a
:100f20005300320063424200844f5100e6003a0011
:100f30004f0037001181e90082087800f00090002e
:100f400012417800de00370020629000c5c6b30071
:100f5000854f520007003a009102780064825200e7
:100f6000840878001402be004fabde0086037800d0
:100f70001400370015c7b300854f520003003a0034
:100f8000110478006802540005003700a5c6b300bc
:100f9000854f520006003a009104780068825400a0
:100fa000840878005403be004402be0005003700e8
:100fb0001182e9008408780014027800cfa2de00d4
:100fc000612bb9000498be000690be00a06090009e
:100fd00088c6b30088cf50000d00320028c6b30089
:100fe00088cf500004003a000402fb00cfa2de00cc
:100ff000612bb9000800370048c7b30088cf500004
:10100000030032006644440088cf500004003a00d8
:10101000cfa2de00612bb9000498be000690be008e
:101020003002be002003be00f0009000e00f52002e
:10103000e08f5a00e00f5b00e08f5b0002003d0094
:10104000d4c2b30008003700001290000418a300b7
:1010500002003200b4c2b300030037000408a3004a
:101060005100320004c2b30084f178004c00370014
:1010700020629000c5c6b300854f520008003a00b8
:101080001105780064025500840878001404be003d
:101090006055b8000802be000a03be001400370005
:1010a00015c7b300854f520003003a009104780041
:1010b0006882540005003700a5c6b300854f520072
:1010c00006003a001105780068025500840878008f
:1010d0005403be004402be00050037001182e9003f
:1010e00084087800140278008002eb006033b800b6
:1010f0000498be000690be00a060900088c6b300b1
:1011000088cf50000d00320028c6b30088cf5000b1
:1011100004003a000482fb008002eb006033b80058
:101120000800370048c7b30088cf500003003200e2
:101130006644440088cf500004003a008002eb006f
:101140006033b8000498be000690be008010900086
:101150000138a300140032003002be002003be009c
:10116000e00f5200e08f5a00e00f5b00e08f5b0061
:101170000d00320081c7b300814f510003003200df
:1011800081c5b300814f510007003a00f000900084
:1011900004c3b30084f178008100e80082f1780094
:1011a0008100e80071009800f0009000818141000a
:1011b00063009800824078003e003700a0619000f4
:1011c000c4c6b3001181e90084cf5100220032006f
:1011d0000a003c006442520084cf510025003200d6
:1011e00004c2e80084cf510013003200684252006c
:1011f00084cf51001e003a000a00370044c7b300f4
:1012000084cf51001b0032006642420084cf51005f
:10121000180032006942520084cf510014003a0095
:10122000050037008208780092007800405890004e
:10123000804878002c0037008208780092007800ff
:10124000600a9000cfa2de00612bb9008498be0036
:101250008690be0024003700820878009200780053
:1012600060099000cf91de008288be001e0037002a
:101270001181e900820878009200780060089000ef
:1012800080087800180037001181e9008208780092
:1012900012027800cfa2de00612bb9000498be00d4
:1012a0000690be00f000900081814100630098002c
:1012b00081c7b3001c0007000b003700f00090004e
:1012c00082f1780006003700f00090008181410033
:1012d0000204e00001003a0052c2b30082497800e3
:1012e0008100e800710098000000eb004f05be008f
:1012f0004f04be0000000600020037000304e000b7
:10130000060032000001780002007800b041780049
:1013100081cf5100f9ff3a00010037000001eb00d6
:101320000200780000000600fc874700889fbe008e
:101330008a9fbe008c9fbe008e1f7800000678003a
:1013400080c5b30080cf50000a00320077404000d3
:1013500080cf50000a0032006940400080cf50002a
:101360000b003200d0cb200080bf9f00ae002000d9
:101370000a003700c2ca200082bf9f000600370063
:10138000d3cb200083bf9f008e00200003003700d6
:10139000d4cb200084bf9f000e0120003c02be0081
:1013a0002c03be000605be000404be0040c6b30008
:1013b00080cf5000030032006540400080cf5000d5
:1013c0000b003a00e00f5200e08f5a00e00f5b0084
:1013d000e08f5b0006003d006000b8006011b800bf
:1013e000040450008584580006055900878559007b
:1013f000e80f57000400320040002000f00f5700b3
:1014000038003a000100370030002000e00f54009f
:10141000e08f5c00e00f5d00e08f5d0004003a00ab
:10142000dc0890008d0120000100e0000600320081
:101430008e00e900888060008fba9700e5c07800d0
:10144000f1ef9f007d012000800078008100e9001d
:10145000050033008b05d1000a85d3008984d300b1
:101460000884d300f9ff3700089ebe000a96be002c
:10147000120037008d06e9008e00e90084806000cc
:101480000fb99700e2c1780082fd2f000f014100e3
:1014900003f17e00800078008100e9000500330040
:1014a0008783d1000683d3008582d3000482d300d2
:1014b000f9ff3700049ebe000696be003c02be0047
:1014c0002c03be00e00f5200e08f5a00e00f5b00db
:1014d000e08f5b008b0034000d00e000e5ff3c0076
:1014e000880037002c60900081c6b300814f500007
:1014f0000b00320006003c000004e000080032004f
:10150000e6c05000814f50004e003a000400370002
:10151000c1c6b300814f50004a003a002100370095
:101520000800e00004003a005c0890008d012000f3
:101530000000e00006003200110009000e84d8000f
:101540000fb99700e2c07800f1ef9f007d01200005
:10155000110009000e84d8000a00370011000900ac
:101560000e04d8008d06e9000e81b9000204540073
:101570008fb8970061417c0081fd2f008f80400073
:1015800082f07e00000478000800e00002003200d3
:101590000d00e000f1ff3c00cfc4de00614db9005a
:1015a00025003700e00f5400e08f5c0004003a0093
:1015b0005c0890008d0120000000e0000700320070
:1015c0006171b9000800be00630107008fb9970080
:1015d000e3417800f3ef9f007d0120006171b900c5
:1015e0000800be004c0107000b0037006171b90014
:1015f0000800be00390107008d06e90000f1b900be
:10160000020454000fba9700e4427c0084fd2f00ce
:101610000f02420005f27e000004be00e00f500001
:10162000e08f5800020032000d00e000efff3c00a8
:101630004fcdde008a057800089ebe000a96be00e7
:1016400030003700e00f5400e08f5c00e00f5d00d9
:10165000e08f5d0004003a005c0890008d012000de
:101660000000e000090032006172b900612bb9008e
:101670000800be000a01be00da0107000fba970099
:1016800064427800f4ef9f007d0120006172b90090
:10169000612bb9000800be000a01be00ca010700a4
:1016a0000d0037006172b900612bb9000800be005f
:1016b0000a01be00cf0107008d06e90000f2b90063
:1016c000040454008fba970065427c0085fd2f000a
:1016d0008f82420084f27e00009ebe000296be0011
:1016e0003c04be002c05be00e00f5400e08f5c00ff
:1016f000e00f5d00e08f5d00020034000d00e000af
:10170000e8ff3c00e80f570010003a000c10900072
:101710000038a3000d003200f78f560006003e008f
:1017200085fd2f008f824200e5c07e0000c3b3001c
:1017300080cf5000050032008d06e90002c3b300df
:1017400081fd2f008f80400082f07e00788116009e
:10175000120e98006c00900083fd2f008f814100d5
:101760008d804100f6fc07001c089000dc0890000a
:10177000810f500006003d0000805000000e9800d0
:101780000c1090000040a100001698000f003700d8
:101790000100e0000d003d008c109000f48060001e
:1017a000f08f500009003a007c099000fc00900086
:1017b000810051000c099000828050000080500090
:1017c0004240a90001003400000e98004f07780045
:1017d0004f06be004f05be004f04be00cf01b10052
:1017e000000006000400fa00889fbe008a9fbe0029
:1017f0008c1f78000004780001067800f80d900036
:10180000780090008085550008089000808555007c
:1018100018089000808555002808900080855500a4
:101820003808900080855500480890008085550054
:101830000002220090bf9f0000032300a0bf9f0072
:10184000081090000028a30015003a000b00e000eb
:10185000130034000b0578008a047800e20f55006d
:101860000100360029002000c8019000090178001d
:10187000ee805700580090000300010050049800cb
:101880000000e0008c003200680890000900400071
:10189000600c9800090555004240a900eeff3c008d
:1018a000780190000200e0000c003400c8019000b4
:1018b0008c0078005800900003000100500498004c
:1018c0008080eb000000e0007c003200e80890001f
:1018d0007800900000804000600c9800880c900018
:1018e0000900e0001100340009057800e28f54007f
:1018f000010036002a002000c80190000a0178008b
:10190000ec8057005800900003000100500498003c
:101910000000e00068003200680890000a00400003
:10192000600c98008a845400edff3700180990007d
:101930000200e0000c003400c8019000e8009000b4
:101940005800900003000100500498008080eb00d4
:101950000000e00059003200e808900018089000ec
:1019600000804000600c9800a80c90000900e00086
:101970001100340009057800e28f540001003600a0
:101980002a002000c80190000a017800ec8057006e
:101990005800900003000100500498000000e0008f
:1019a00045003200680890000a004000600c980072
:1019b0008a845400edff3700380990000200e000ef
:1019c0000e003400e800900018089000808040006d
:1019d000c8019000580090000300010050049800d6
:1019e0008080eb000000e00034003200e808900046
:1019f0003808900000804000600c9800c80c9000ef
:101a00000900e0001100340009057800e28f54005d
:101a1000010036002a002000c80190000a01780069
:101a2000ec8057005800900003000100500498001b
:101a30000000e00020003200680890000a0040002a
:101a4000600c98008a845400edff37000810900065
:101a50008000eb000028a300180032000b00e0001b
:101a6000160034008b04780009057800e28f5400da
:101a7000010036002a002000c80190000a01780009
:101a8000ee805700580090000300010050049800b9
:101a90000000e00008003200680890000a004000e2
:101aa000600c98008a8454004240a900eeff3c007c
:101ab0008000eb00010037008080eb00010078001f
:101ac0004f0678004f05be004f04be000080fa00ac
:101ad000000006000108780000000600839f6800ef
:101ae0000100e00002003d0060001000e0801800ee
:101af0000300e00002003d0060011100e0811900d8
:101b0000050007004f00e00002003b0060001000ed
:101b1000e0801800000006006022b80006022000e5
:101b20000000d0008180d2000482d2008582d200e1
:101b30000000a0000202520083825a00030031001c
:101b40000202420083824a000000a1000603e9006d
:101b5000f3ff3a0000000600efff07000400be009c
:101b600000000600889fbe008a9fbe00300442002d
:101b7000b0844a0030054b0090854b006000b100f6
:101b80000898be000a90be000440e10005c8e100cc
:101b900006d0e10007d8e1000200310068004000f3
:101ba0001008e8004f05be004f04be00000006000c
:101bb000889fbe008a9fbe003004be002005be0084
:101bc0000418540005985c0006185d0007985d0035
:101bd000110020000440e10005c8e10006d0e1004a
:101be00007d8e100010039008000eb0010881000e8
:101bf0004f05be004f04be00000006001200fa00b0
:101c0000889fbe008a9fbe008c9fbe00e0b79f00e9
:101c1000f1b79f0082bf9f0093bf9f000605be00e3
:101c20000404be000000eb00d0b79f00c0b79f00c7
:101c3000b0b79f00a0b79f0090b79f000006eb00d1
:101c40005fb19700cfb09700820141003fb097008d
:101c50000200e00004003d00370007007e805700ce
:101c6000c0ff070003003700330007007e805700e5
:101c7000cfff0700dfb697000d00e0000c00350035
:101c80006fb29700ffb297000fbb97009fbb970002
:101c900010002000010020006011b8000002720056
:101ca0008182720002037300838373001b000700ac
:101cb0000c06e80001042000810f5600e0ff3a0006
:101cc0000d00e00004003d000802be000a03be0053
:101cd0007e805700a3ff07005fa897000000e00088
:101ce00005003a001fb29700afb297003fb39700cc
:101cf000cfb39700090007006fb09700ffb09700bf
:101d00000fb997009fb997004f06be004f05be0060
:101d10004f04be000080fa0000000600010007002a
:101d200000000600a4b79f00b5b79f00c6b79f008c
:101d3000d7b79f00000006004f09de0082817100c6
:101d4000b3b79f004f01de008180400082807000a9
:101d5000a1b79f008fb097004f09de000000400040
:101d60000200700090b79f007fa897004f01de002f
:101d7000818040008280700081b79f000d000700c5
:101d80004f3ade000000400004007000f0af9f00fa
:101d9000080007000402420085824a0006034b0047
:101da00087834b00dfff07000802be000a03be0066
:101db000000006002fb29700bfb297004fb3970004
:101dc000dfb3970000000600881f7800180020008d
:101dd000881f780089ff07008f87e9004f0478008b
:101de00000000600801feb0084ff07008f87e900da
:101df00000000600889fbe008a9fbe00e00f5000d2
:101e0000e08f5800e00f5900e08f59000c003d00b2
:101e10006044b8006055b8000000540081805c0048
:101e200002015d0083815d0018002000150007009d
:101e300008003d00180007000004eb000500370013
:101e40000004eb000f00070002003d001200070035
:101e500018002000dcff07000800e0000600320048
:101e60006022b8006033b8000000520081805a0040
:101e700002015b0083815b004f05be004f04be0082
:101e800000000600e00f5200e08f5a00e00f5b00f8
:101e9000e08f5b00000006006044b8006055b800a9
:101ea0000402540085825c0006035d0087835d00a8
:101eb00000000600889fbe008a9fbe008c1f78002d
:101ec000e00f5000e08f5800e00f5900e08f5900fc
:101ed0000d003d006044b8006055b800000054009b
:101ee00081805c0002015d0083815d001c00200098
:101ef0000820e10009a8e1000ab0e1000bb8e10008
:101f00000d003d00080037000006eb00e00f520016
:101f1000e08f5a00e00f5b00e08f5b0006003d00a1
:101f20006044b8006055b8000402540085825c002b
:101f300006035d0087835d00aaff07000c00e00038
:101f4000060032006022b8006033b8000000520082
:101f500081805a0002015b0083815b004f0678009c
:0c1f60004f05be004f04be00000006004c
:020000040000fa
:101f6c00415400000d0000004154000045300000b9
:101f7c000d000000415400002b4300004d450000b3
:101f8c00453d0000310d000000410000542b0000c5
:101f9c00434700004d4d00000d000000415400006f
:101fac002b430000475300004e0d00000041000081
:101fbc0054490000390d000000410000542b000072
:101fcc0043430000494400000d0000004154000050
:101fdc002b4300004c4300004b3d000022530000fb
:101fec00432200002c3200000d0000004154000080
:101ffc002b43000052450000473d0000310d00000e
:10200c0000410000542b0000434f000050530000cf
:10201c003f0d0000002b0000434f00005053000008
:10202c003a20000000410000542b0000434f0000f8
:10203c00505300003d3000000d0000002b43000009
:10204c00535100003a200000002b000043520000c6
:10205c00454700003a20000000410000542b0000ce
:10206c0043530000510d000000410000542b0000b0
:10207c0043500000494e00003d22000000220000a9
:10208c000d000000415400002b430000505700008d
:10209c00524f0000464600000d00000025300000a5
:1020ac003275000020250000303200007520000041
:1020bc002530000032750000202500003032000071
:1020cc00752000002530000032750000202500002e
:1020dc003032000075200000253000003275000001
:1020ec00200a00000053000041200000310a0000cb
:1020fc000053000041200000320a00000053000091
:10210c00412000003320000072650000743d000087
:10211c0025640000200a00000045000072720000d7
:10212c003d25000064200000746f00003d25000078
:10213c00640a000000570000204500007272000085
:10214c003d25000064200000746f00003d25000058
:08215c00640a0000000000000d
:020000040000fa
:102164000000fa00a0c72000104078000080fb00a7
:10217400e30f5000e4003200e30f500007003c007e
:10218400e10f500026003200e10f50004d003c00ea
:102194000000e00011003200eb033700410620008c
:1021a400810f5000df02320041062000810f5000f1
:1021b40003003c00e40f500002013200e203370048
:1021c400810c2000810f50000f033200a10f20006a
:1021d400810f5000b5033200db033700b0c7200085
:1021e4008040eb0001487800b666a800500020004b
:1021f40050408800d6030700b7040700411f2000a1
:1022040010c0b30073090700a0c720001040780075
:102214008040e800a0c7200001487800ca033700c6
:10222400a135800000022000008060000000e00072
:10223400c0033a0060fb2800500407000cc8bf002c
:102244000080fb00c300dd00208b200000804000e4
:102254008000eb00010878000cc8bf000080fb0080
:10226400c300dd00408b2000008040008000eb00b4
:10227400010878000cc8bf000080fb00c300dd002b
:10228400608b200000814000401f200001002000de
:102294000089be000cc8bf000040e8000ce8b7008d
:1022a400200020008040880010c0b30033090700dc
:1022b400a0c7200021c0b300014878001968ef00ce
:1022c400a103370000c8bf000004e0007c00320016
:1022d40080992000d303070019c8bf00e14f5000c4
:1022e40096033a001368ef001268ef003c003700d1
:1022f40012c8bf000080fb002181200091407800bb
:102304008180fb008299200062c17800a19c20009a
:102314008270780012c8bf00e34f50002d003600d1
:1023240013c8bf000004e0002a003a0012c8bf002e
:102334000080fb0064005000a19c2000e140780074
:1023440050c4b30080cf500022003a0012c8bf002e
:102354000080fb0063005000a19c2000e140780055
:1023640020c5b30080cf50001a003a0012c8bf0045
:102374000080fb000080e900a19c2000e14078007f
:1023840020c5b30080cf500012003a0012c8bf002d
:102394000080fb000000e900a19c2000e1407800df
:1023a400f0c4b30080cf50000a003a0012c8bf0046
:1023b4000080fb00a19c2000e140780020c5b30010
:1023c40080cf500003003a0012c8bf0063404000b1
:1023d40013e8b70012c8bf000040e80012e8b700d5
:1023e400218120009140780005c8bf0080cf5000b3
:1023f400bfff390005c8bf0006e8b70006c8bf0024
:102404000004e00002003a000828ef00250037002d
:1024140013c8bf000004e0001400320010002000c4
:1024240040408800618020009140780013c8bf00bc
:1024340080c0500013c8bf000081fb00a09c200096
:10244400000041006e04070000007800704088001e
:102454004101200010c0b300de080700a0c720001f
:1024640081ccb3000148780037033700a09c2000da
:1024740090407800f0c4b30080cf500007003a00c9
:10248400b09c200090407800b0c4b30080cf5000ce
:1024940002003a000828ef00020037003000200054
:1024a400404088004101200010c0b300c908070063
:1024b400a0c7200031c0b3000148780022033700d0
:1024c400804080000000e0001e033a009045800038
:1024d4000000e00006003a00a0c720001040780089
:1024e4008040e900a0c720000148780016033700a7
:1024f40010c0b300a1080700a0c72000a1cfb300fb
:10250400014878001003370000c0eb0007e8b7006b
:102514001268ef001700370012c8bf000080fb00ec
:102524004300dd008080e800208b20000080400014
:102534009000780040408000808f50000a003a00ec
:1025440012c8bf000080fb00c300dd00608b2000c8
:10255400008140006000b8000089be0012c8bf00be
:1025640007e8b7000800370012c8bf000040e800c1
:1025740012e8b70021812000914078000cc8bf0008
:1025840080cf5000e4ff390007c8bf00e14f40008e
:1025940006003a0010c0b30078080700a0c7200066
:1025a40041c6b30001487800e702370010c0b30009
:1025b40072080700a0c7200041c0b300014878009a
:1025c400e102370010c0b3006c080700a0c7200068
:1025d40021c0b300014878001968ef0007c8bf00a4
:1025e4000080fb00c300dd00208b20000080400041
:1025f400100078008000eb00e200200003002000bf
:10260400820f5000838f580085013e000060010056
:102614000e00370029003700440037005f00370000
:10262400810137007e0037009e003700be0037006e
:10263400de003700dd0037006d013700f900370098
:10264400140137003901370043013700a0fb28008b
:102654004a0307000cc8bf000080fb00c300dd0074
:10266400208b200000804000110020000108780029
:102674000cc8bf000080fb00c300dd00408b2000bd
:10268400008040008000eb00010878000cc8bf0007
:102694000080fb00c300dd00608b2000008140004f
:1026a400007d2000010020000089be000cc8bf008e
:1026b4000040e8000ce8b7006001370000fc280087
:1026c4002e0307000cc8bf000080fb00c300dd0020
:1026d400208b2000008040002100200001087800a9
:1026e4000cc8bf000080fb00c300dd00408b20004d
:1026f400008040008000eb00010878000cc8bf0097
:102704000080fb00c300dd00608b200000814000de
:10271400007d2000010020000089be000cc8bf001d
:102724000040e8000ce8b70044013700b0fc280082
:10273400120307000cc8bf000080fb00c300dd00cb
:10274400208b200000804000310020000108780028
:102754000cc8bf000080fb00c300dd00408b2000dc
:102764000080400031002000010878000cc8bf0040
:102774000080fb00c300dd00608b2000008140006e
:10278400007d2000010020000089be000cc8bf00ad
:102794000040e8000ce8b7002801370006c8bf0075
:1027a40000417800c1922000a09c20007e03070015
:1027b40040fd2800f10207000cc8bf000080fb00a8
:1027c400c300dd00208b2000008040005100200069
:1027d400010878000cc8bf000080fb00c300dd00c6
:1027e400408b200000804000310020000108780068
:1027f4000cc8bf000080fb00c300dd00608b20001c
:1028040000814000007d2000010020000089be00fe
:102814000cc8bf000040e8000ce8b700070137000f
:1028240006c8bf000041780021902000a09c200031
:102834005d030700d0fd2800d00207000cc8bf00cc
:102844000080fb00c300dd00208b200000804000de
:1028540061002000010878000cc8bf000080fb0064
:10286400c300dd00408b20000080400031002000c8
:10287400010878000cc8bf000080fb00c300dd0025
:10288400608b200000814000007d200001002000ba
:102894000089be000cc8bf000040e8000ce8b70087
:1028a400e600370006c8bf0000417800719120009f
:1028b400a09c20003c03070030fe2800af02070064
:1028c4000cc8bf000080fb00c300dd00208b20008b
:1028d4000080400071002000010878000cc8bf008f
:1028e4000080fb00c300dd00408b2000008040001e
:1028f40031002000010878000cc8bf000080fb00f4
:10290400c300dd00608b200000814000007d2000ba
:10291400010020000089be000cc8bf000040e80090
:102924000ce8b700c500370006c8bf0000417800b6
:1029340011942000109d20001b030700c0fe2800f6
:102944008e0207000cc8bf000080fb00c300dd003e
:10295400208b2000008040008100200001087800c6
:102964000cc8bf000080fb00c300dd00408b2000ca
:102974000080400031002000010878000cc8bf002e
:102984000080fb00c300dd00608b2000008140005c
:10299400007d2000010020000089be000cc8bf009b
:1029a4000040e8000ce8b700a40037003000200025
:1029b40050408800c0ff2800700207000cc8bf0008
:1029c4000080fb00c300dd00208b2000008040005d
:1029d400b1002000010878000cc8bf000080fb0093
:1029e400c300dd00408b2000008040008000eb002d
:1029f400010878000cc8bf000080fb00c300dd00a4
:102a0400608b200000814000007d20000100200038
:102a14000089be000cc8bf000040e8000ce8b70005
:102a24008600370070002900540207000cc8bf005c
:102a34000080fb00c300dd00208b200000804000ec
:102a4400c1002000010878000cc8bf000080fb0012
:102a5400c300dd00408b20000080400031002000d6
:102a6400010878000cc8bf000080fb00c300dd0033
:102a7400608b200000814000007d200001002000c8
:102a84000089be000cc8bf000040e8000ce8b70095
:102a94006a00370011012900a09c20002d030700c3
:102aa400e14f500062003a00109d200090407800f1
:102ab40000c3b30080cf50001c00320090012900f5
:102ac4002e0207000cc8bf000080fb00c300dd001d
:102ad400208b200000804000d100200001087800f5
:102ae4000cc8bf000080fb00c300dd00408b200049
:102af400008040008000eb00010878000cc8bf0093
:102b04000080fb00c300dd00608b200000814000da
:102b1400007d2000010020000089be000cc8bf0019
:102b24000040e8000ce8b700440037005040800043
:102b3400e40f5000020032003000200050408800b2
:102b4400b0c7200011c0b300014878001000200075
:102b5400804088003900370041022900a09c2000f1
:102b6400fc020700e14f500033003a0060c0b3009c
:102b740012e8b7000a00370012c8bf000080fb004b
:102b8400a19c2000e1407800c0c2b30080cf500077
:102b94000900320012c8bf000040e80012e8b70084
:102ba400218120009140780006c8bf0080cf5000ea
:102bb400f1ff3900010037000000000012c8bf0017
:102bc4006640500080407800009d20008c02070081
:102bd400a0408800b1408800a0408000b14080003f
:102be4008040780050962000014878001300370098
:102bf400d3020700b666a9000a28ef0010c0b3008c
:102c0400de060700a0c720008040eb0001487800e2
:102c14008138210010c0b300ee060700070037001a
:102c2400000000000500370000000000030037002a
:102c340000000000010037000000000007c8bf00ca
:102c440012e8b7002e00370012c8bf000080fb0056
:102c540021812000914078008180fb008100e80000
:102c64004309dd00218b20008100410091007800a0
:102c74004301dd00208b20000000410001087800a2
:102c840012c8bf000080fb00218120009140780021
:102c94008180fb008100e800c308dd000181e800b9
:102ca400218b200081004100910078004301dd0068
:102cb400408b2000000041000108780012c8bf00ca
:102cc4000081fb0012c8bf000080fb000000e80088
:102cd4004300dd00e4004000208b20000080400021
:102ce4001000be00c311dd00628b20000281410090
:102cf4000089be0012c8bf000040e80012e8b70017
:102d040021812000914078000cc8bf0080cf500082
:102d1400cdff39000cc8bf000040e9000ce8b70043
:102d240009013700b1022900a09c20008902070094
:102d3400e14f50002d003a00109d20009040780093
:102d440010c3b30080cf500005003200109d200056
:102d54009040780050c3b30080cf50001e003a006a
:102d64004000200050408800300329008301070000
:102d74000cc8bf000080fb00c300dd00208b2000d6
:102d840000804000e1002000010878000cc8bf006a
:102d94000080fb00c300dd00408b20000080400069
:102da40031002000010878000cc8bf000080fb003f
:102db400c300dd00608b200000814000007d200006
:102dc400010020000089be000cc8bf000040e800dc
:102dd4000ce8b700050037003000200050408800a0
:102de400509620008040eb000148780010c0b300ea
:102df40062060700a0c7200021c0b3000148780084
:102e04001968ef00d0003700704080006101b800fd
:102e1400c0ff2f00f1ff2f00020040008380480014
:102e2400e200200003002000820f5000838f58002e
:102e340096003e00006001000e003700930037004a
:102e44009200370091003700900037008f00370060
:102e54000e0037000e00370085003700850037006c
:102e6400850037008500370085003700850037006e
:102e74008500370010c0b30040060700a0c720003b
:102e8400a1cfb300014878008700370086003700df
:102e9400b0032900390107000096200063010700f0
:102ea40050042900350107000cc8bf000080fb0056
:102eb400c300dd00208b2000008040009100200032
:102ec400010878000cc8bf000080fb00c300dd00cf
:102ed400408b2000008040008000eb000108780057
:102ee4000cc8bf000080fb00c300dd00608b200025
:102ef4000081400080382100010020000089be00cc
:102f04000cc8bf000040e8000ce8b7001368ef00ed
:102f14000b00370013c8bf000080fb00c300dd00b6
:102f2400208b20000080400010007800e80f500043
:102f34000900320013c8bf000040e80013e8b700de
:102f440031812000914078000cc8bf0080cf500030
:102f5400f0ff39000100370000000000318120003b
:102f6400914078000cc8bf0080cf500039003e006b
:102f740013c8bf0012e8b7002e00370012c8bf0004
:102f84000080fb0021812000914078008180fb00bb
:102f94008100e8004309dd00218b2000810041000d
:102fa400910078004301dd00208b200000004100e7
:102fb4000108780012c8bf000080fb0021812000b6
:102fc400914078008180fb008100e800c308dd00a7
:102fd4000181e800218b20008100410091007800ec
:102fe4004301dd00408b200000004100010878000f
:102ff40012c8bf000081fb0012c8bf000080fb00a4
:103004000000e8004300dd00e4004000208b2000c5
:10301400008040001000be00c311dd00628b200060
:10302400028141000089be0012c8bf000040e800d0
:1030340012e8b70021812000914078000cc8bf003d
:1030440080cf5000cdff39000cc8bf000040e9001c
:103054000ce8b70010c0b300c8050700a0c72000e3
:1030640021c0b300014878001968ef000e00370052
:103074000d0037000c0037000b0037000a00370042
:1030840009003700080037000700370010c0b300fc
:10309400ba050700a0c7200021c0b300014878008a
:1030a4001968ef0028003700270037008004290042
:1030b400b20007000cc8bf000080fb00c300dd00a5
:1030c400208b200000804000a1002000010878002f
:1030d4000cc8bf000080fb00c300dd00408b200053
:1030e400008040008000eb00010878000cc8bf009d
:1030f4000080fb00c300dd00608b200000814000e5
:1031040000c42900010020000089be0010c0b300e3
:103114000ce8b70010c0b30098050700a0c7200052
:1031240021c0b300014878001968ef0000000000d6
:103134000500370000000000030037000000000015
:1031440001003700000000000080fa0000000600c3
:103154000000fa0080002000c01c88009a23ef00c1
:1031640020022000001d8800a223ef009960a8001f
:1031740099e3a8009b43a8001268ef0008003700f9
:1031840012c8bf000080fb00e18420000041eb0076
:103194008270780012c8bf000040e80012e8b7004f
:1031a400218120009140780010c3b30080cf5000eb
:1031b400f3ff36000468ef000068ef001a68ef00c0
:1031c4001b68ef000228ef000080fa0000000600f0
:1031d4000000fa0004c8bf000080fb00f11c80005e
:1031e40001417800018820008270780004c8bf0083
:1031f4000040e80004e8b7004180200091407800d6
:1032040010c3b30080cf5000010036000468ef0003
:1032140000c8bf000040e80000e8b7000080fa00e2
:10322400000006000200fa00881f7800000f7800f2
:103234003400370019c8bf000004e0002f003a0032
:1032440010408000ea0f5000010036001868ef00bb
:1032540018c8bf000080fb001e0440002f000700b8
:10326400004c78000228ef0018c8bf000004e000fa
:103274001400320018c8bf000080fb001e0040008c
:1032840010407800ea4f50000e003a0018c8bf0002
:103294000080fb000000e9001e00400010407800a0
:1032a400ed4f500007003a0010c0b30019e8b70012
:1032b40018c8bf000040e90005e8b7001868ef002f
:1032c4001300370018c8bf000040e80018e8b70032
:1032d400818120009140780020c3b30080cf50004a
:1032e4000800360018c8bf000040e90018e8b7001d
:1032f40010c0b3001be8b700020037000228ef003b
:103304000300370000c8bf000004e000c9ff3a0012
:103314004f0478000080fa00000006000200fa0062
:103324000040eb00004f78009960a9001ac8bf0064
:103334000080fb0001882000614f78001ac8bf009c
:103344000040e8001ae8b700a1812000914078000d
:1033540010c3b30080cf5000010036001a68ef009c
:1033640000c8bf000040e90000e8b7009960a80069
:103374001e4078000080fa00000006000400fa00f5
:10338400100798000040eb00004f78000000000098
:103394000100370000000000d11c80000010200054
:1033a400008060000000e000fbff3200000000002d
:1033b400a135800000022000008060000000e000d1
:1033c400fbff3a001e009000104078000000fb0054
:1033d400e01c88001e80fb009e0090009140780055
:1033e4000141780061962000827078001e4fe80049
:1033f4001e0090000000e800100798001e009000d6
:10340400104078000004e000e2ff3a0000000000f1
:10341400d11c800000102000008060000000e0004b
:10342400fbff32000080fa00000006000400fa00ee
:1034340010079800e0c1b300004f780000000000be
:103444000100370000000000d11c800000102000a3
:10345400008060000000e000fbff3200000000007c
:10346400a135800000022000008060000000e00020
:10347400fbff3a001e009000104078000080fb0023
:10348400e01c88001e80fb009e0090001141780023
:1034940061962000827078001e4fe8001e009000a4
:1034a4000000e800100798001e009000104078000b
:1034b4000004e000e3ff3a0000000000d11c80009b
:1034c40000102000008060000000e000fbff3200dc
:1034d4000080fa00000006000000fa000768ef0010
:1034e4001268ef001800370012c8bf000080fb000c
:1034f400c300dd00208b200000804000410020003c
:103504000108780012c8bf000080fb00c300dd0082
:10351400408b2000008040008000eb000108780010
:1035240012c8bf000080fb00c300dd00608b2000d8
:10353400008140006000b8000089be0012c8bf00ce
:103544000040e80012e8b70012c8bf00e94f50007d
:10355400e5ff36000096200001c3b300014878005f
:103564001096200001c3b300014878002096200083
:1035740001c3b300014878003096200001c3b300b2
:1035840001487800409620008040eb000148780014
:103594005096200031c6b300014878000e28ef0091
:1035a4000080fa00000006000800fa0010079800e6
:1035b40021079800624798000040eb00004f780014
:1035c400090037001e80fb00ae0090000080400020
:1035d4009e80fb001e019000810041009140780014
:1035e400014878001e4fe8006e4090009e4078002d
:1035f40080cf5000f3ff39000080fa00000006007d
:103604001000fa0060079800614f98006000b8004d
:1036140030079800410798000040eb0010479800dd
:103624003f0037001e4090000080fb00ee00900039
:10363400008040009040780000cdb30000c04000fe
:10364400204f98001000200001002000100798006f
:103654002107980010c0b300004f78001100370014
:103664002e0090006a00b900000178001e0090004e
:103674006000b90000007800000141009e00900045
:10368400a00020000008b800010141008200780079
:103694001007980021079800100798002107980048
:1036a4001e4fe8009e80fb006e4890000081fb00e6
:1036b4001e4090000080fb0000005100808f5000ed
:1036c400e7ff35002e4890000080fb008000eb00ef
:1036d4001e0190000191b90002017800ae01900032
:1036e400009ab90084017800030141009e01900012
:1036f4000018b80001014100820078003e019000ea
:10370400ce019000020040008380480030079800fa
:10371400410798001e4090000040e80010479800c0
:103724009e4090006e48900080cf5000bdff39004d
:103734003e009000ce0090000080fa0000000600d9
:103744000000fa0099e3a9009b43a9000080fa0055
:10375400000006000600fa001007980021079800f0
:103764000040eb00104798000040eb00004f780049
:103774002e009000fff40700104798000040eb0073
:10378400004f78000f0037001e80fb009e00900061
:1037940000804000104078008080fb001e80fb0009
:1037a4002e01900000004100104078000000fb0052
:1037b400808f5000020032000040eb00060037000a
:1037c4001e4fe8001e4090009e40780080cf5000bd
:1037d400edff390010c0b3000080fa0000000600bd
:1037e4002800fa0080c92000104078000080fb0007
:1037f400e20f50003b003200e20f500005003c0095
:103804000000e00008003200e10f50001000320018
:103814009f003700e40f500072003200e40f5000a4
:103824004c0035009a003700a90207003d68ef00fc
:1038340040012000d041880080c920001040780059
:103844008040e80080c920000148780090003700db
:10385400c09f200021c4b30001487800d09f2000fd
:10386400f1c6b30001487800e09f2000e1c6b30030
:1038740001487800f09f2000a1c6b30001487800f9
:1038840000a02000f1c6b3000148780010a0200079
:1038940051c7b3000148780020a0200021c7b3001d
:1038a40001487800a5832000d4832000c39f200012
:1038b40072c0b3008000eb0000c5b30081010700b3
:1038c40080c92000104078008040e80080c92000b2
:1038d40001487800a100200060c0b300bd030700c8
:1038e4006b003700a5832000d483200083a8200028
:1038f40072c0b3008000eb0000c5b300d50107001f
:1039040080a820009040780070c3b30080cf50009e
:1039140004003a0090c9200011c0b30001487800a7
:103924000300370090c9200031c0b300014878007b
:1039340080c92000104078008040e80080c9200041
:1039440001487800a100200060c0b300a103070073
:103954004f00370001558000f07f20008080600018
:1039640000802900010070000055880000aa200092
:1039740051c0b30001487800f0a9200011c1b30080
:103984000148780001558000f08f2f00008060000e
:103994000090a00000558800c0a9200051c1b300c8
:1039a40001487800d0a9200001c3b3000148780081
:1039b400e0a9200001c2b30001487800c0a920009a
:1039c400ed02070080c92000104078008040e80024
:1039d40080c9200001487800a100200060c0b30025
:1039e4007c03070020aa20007902070030558000dc
:1039f4004b00de00004078000083fb0060aa20003a
:103a0400104078008082fb00305580004800de00c2
:103a1400674060000082fb0050aa2000104078003c
:103a24008081fb0020aa2000104078000081fb0068
:103a340030aa2000104078008080fb0040aa2000bb
:103a4400104078000080fb00861f7800851f7800f6
:103a5400841f7800831f7800821f7800811f7800fc
:103a6400801f780040052900801f78000e00780030
:103a74004df40700f08757000e0078008306070016
:103a8400813e200060c0b300520307000000000024
:103a94000080fa00000006000200fa00000f78001f
:103aa400060037001e007800100078000000e000d7
:103ab40002003a0010c0b3000a003700d02480008e
:103ac4007f0060000000e000f6ff3a00f12480006f
:103ad40000002400008060000000e000f1ff3a00d4
:103ae4000040eb000080fa00000006000200fa002b
:103af400000f78001e007800e7ff0700e14f500038
:103b040002003a0010c0b3000d0037009a04a80068
:103b1400060037001e007800100078000000e00066
:103b240002003a0010c0b30005003700d024800022
:103b3400610060000000e000f6ff3a000040eb0086
:103b44000080fa00000006000400fa00004f78002c
:103b5400110798001e009000cfff0700e14f5000ae
:103b640002003a0010c0b3000b0037009e407800fa
:103b740061c060000080fb00610060004500dd0062
:103b8400d12480000150a10001007000d0248800dd
:103b94009a84a8000040eb000080fa0000000600b0
:103ba4000200fa00000f78001e007800baff070038
:103bb400e14f500002003a0010c0b3000300370088
:103bc4009aa4a8009a84a8000040eb000080fa00a0
:103bd400000006000200fa00000f78001e007800c2
:103be400adff0700e14f500002003a0010c0b300df
:103bf4000d0037009a24a800060037001e00780044
:103c0400100078000000e00002003a0010c0b30089
:103c140005003700d0248000620060000000e0004e
:103c2400f6ff3a000040eb000080fa0000000600b6
:103c34003800fa004077980051779800321f9800b6
:103c44003e18900094ff0700e14f500008003a002e
:103c54000e00e8006200200091072900b7f3070076
:103c64000e00e8000906070010c0b3002e0037005c
:103c74005e709000e14f500006003a004e709000d4
:103c84000080fb00000040000000a000b024880079
:103c9400070037004e7090000080fb0000004000d9
:103ca40080007800f00f200000806000b0248800bd
:103cb4003e18900078ff0700e14f500008003a00da
:103cc4000e00e80062002000f10729009bf30700c2
:103cd4000e00e800ed05070010c0b3001200370025
:103ce4003e18900043000700004f78001e40780003
:103cf4000004e0000b0032009e80fb000e00e80090
:103d0400811f780051082900811f7800a6f307005d
:103d1400e48757000e00e800dc05070010c0b3007c
:103d2400010037000040eb000080fa0000000600ac
:103d34000400fa00004f7800110798001e0090005c
:103d440055ff0700e14f500002003a0010c0b300d5
:103d54000f0037001e80fb00b02488001e00900076
:103d64004dff0700e14f500002003a0010c0b300bd
:103d7400070037001e0090001e000700e14f5000ae
:103d840002003a0010c0b300010037000040eb000d
:103d94000080fa00000006000200fa00000f78001c
:103da4001e0078003cff0700e14f500002003a007b
:103db40010c0b3000d0037009a44a8000600370075
:103dc4001e007800100078000000e00002003a00b5
:103dd40010c0b30005003700d024800064006000e8
:103de4000000e000f6ff3a000040eb000080fa001b
:103df400000006000200fa00000f78001e007800a0
:103e040025ff0700e14f500008003a0010c0b3003e
:103e14000d0037001e007800100078000000e0005c
:103e240003003a0020c0b300070037000000000080
:103e3400f124800000002800008060000000e00001
:103e4400f4ff3a000040eb000080fa000000060096
:103e54000200fa00000f78001e0078000eff070031
:103e6400e14f500002003a0010c0b30013003700c5
:103e74009a64a800060037001e007800100078003d
:103e84000000e00002003a0010c0b3000b0037004d
:103e9400d0248000680060000000e000f6ff3a00d3
:103ea4001e007800fcfe0700e14f500002003a00bb
:103eb40010c0b300010037000040eb000080fa009e
:103ec400000006000e00fa00204798002107980021
:103ed40062479800430798005407980065079800c4
:103ee4006e00900041062000010878005e009000fa
:103ef40011c0b300014878006e009000e6fe070090
:103f0400e14f5000440032005e00900021c0b30035
:103f1400014878006e009000f4fe0700e14f500065
:103f24003f0032005e00900031c0b30001487800c9
:103f34006e0190008040eb002e4090003cff070093
:103f4400e14f5000380032005e00900041c0b300e1
:103f5400014878002e4090008080fb00000520007e
:103f6400808f500008003a002e0090004800de00c8
:103f7400004f7800ee0090001e4078006cff0700b0
:103f8400e14f50002a0032002e00900000407800db
:103f9400ee00900066ff0700e14f5000260032005b
:103fa4005e00900051c0b300014878000040eb006f
:103fb400004f7800090037001e80fb00ce009000ff
:103fc4000080400010407800ee00900058ff070089
:103fd400e14f50001a0032001e4fe8006e4090007e
:103fe4009e40780080cf5000f3ff39005e009000bf
:103ff40061c0b300014878006e00900066ff0700be
:10400400e14f5000100032005e0090008040eb0051
:10401400014878000d003700000000000b00370055
:10402400000000000900370000000000070037000e
:104034000000000005003700000000000300370006
:104044000000000001003700000000000080fa00ba
:10405400000006000e00fa0020479800210798008f
:104064006247980043079800540798006507980032
:104074006e00900041062000010878005e00900068
:1040840011c0b300014878006e00900082fe070062
:10409400e14f5000670032005e00900021c0b30081
:1040a400014878006e00900090fe0700e14f500038
:1040b400620032005e00900031c0b3000148780015
:1040c4006e0190008040eb002e409000d8fe070067
:1040d400e14f50005b0032005e00900041c0b3002d
:1040e400014878002e4090008080fb0000052000ed
:1040f400808f500008003a002e0090004800de0037
:10410400004f7800ee0090001e40780008ff070082
:10411400e14f50004d0032002e0090000040780026
:10412400ee00900002ff0700e14f5000490032000a
:104134005e00900051c0b300014878006e0090000a
:10414400a4fe0700e14f5000440032005e009000de
:1041540061c0b300014878006e01900011c0b30043
:104164002e409000b2fe0700e14f50003d003200a7
:104174005e00900071c0b300014878000040eb007d
:10418400004f78001c0037006e00900030ff0700dd
:10419400e14f5000350032001e80fb00ce0090003d
:1041a40000804000a124800081407800014878000c
:1041b4001e80fb008000e8006e4090000080fb0041
:1041c400808f500006003a00ee00900010c0b3004b
:1041d4005dfe0700e14f500006003a00280037005a
:1041e400ee0090000040eb0057fe0700e14f500046
:1041f400200032001e4fe8006e4090009e40780080
:1042040080cf5000e0ff39005e00900081c0b30011
:10421400014878006e009000dffe0700e14f500077
:10422400160032005e0090008040eb0001487800e8
:1042340013003700000000001100370000000000e8
:104244000f003700000000000d00370000000000e0
:104254000b003700000000000900370000000000d8
:1042640007003700000000000500370000000000d0
:1042740003003700000000000100370000000000c8
:104284000080fa00000006000000fa00da46a900e7
:1042940008003700de46a8000005200001002000c9
:1042a400eb050700de46a900000520000100200000
:1042b400e7050700e0368000680060000000e000c9
:1042c400f4ff3200da46a8000080fa00000006007d
:1042d4000000fa009e24ef0000002800d02488008b
:1042e40020012000c02488000080fa00000006009d
:1042f4000000fa009be4a9000080fa000000060018
:104304000400fa0020479800ae40900000cfb300ac
:1043140000cf60001e80fb004400de00004f7800e8
:104324001e4078006a00b90000007800004f780051
:104334002e4090006f406000204798002e4090006f
:104344001e4f40001e4078000080fa000000060066
:104354003a00fa0040779800311f9800027f9800d5
:104364003d68ef003a28ef0020cab300004f780000
:104374004e7090000080fb00a5832000d4832000b1
:10438400be1990000e799000800078001e407800dd
:1043940030ff0700d24180003dc8bf008080fb0091
:1043a4000e00e800821f7800811f7800310929007f
:1043b400811f7800fcf10700e68757000e00e80033
:1043c4003204070010c0b3000080fa0000000600a9
:1043d4000a00fa0040079800620020008000eb0009
:1043e4004e009000dcf107000e00e80072c0b3003c
:1043f4008000780020c0b300d5ff0700e14f5000d3
:104404003a003a003e409000f043b200bcff07007f
:10441400ce009000804878002e4090000074a100e7
:10442400b7ff0700ce009000904098001e40900017
:104434000074a100b2ff0700ce009000a0409800d5
:104444004e409000f043b200adff0700ce00900054
:10445400b04098005e409000674060006740600094
:1044640067406000ce0090000080fb0067006000a1
:104474004800dd00a1019000f28f2f00028161004d
:1044840002007000a00098006e4090007f40600021
:104494009bff0700ce009000c04098007e40900033
:1044a40097ff0700ff4060004e0090008180fb00f2
:1044b400cb08dd00a0019000f27f200002816100a2
:1044c40082807000210098001e4090000004e000eb
:1044d40003003d0020c0b300004f78000500370002
:1044e40010c0b300004f7800020037000040eb001a
:1044f400004f78001e4078000080fa00000006009b
:104504003a00fa0040779800311f9800027f980023
:1045140020cab300004f78004e7090000080fb006a
:10452400a5832000d4832000be1990000e7990004a
:10453400800078001e40780062fe0700d2418000af
:104544003dc8bf008080fb000e00e800821f780099
:10455400811f7800110a2900811f780092f1070059
:10456400e68757000e00e800c803070010c0b30038
:104574000080fa00000006000a00fa0040079800d4
:104584004e0090000000e000250032004e00900034
:104594001040780025000700204798004e00900046
:1045a4001040900021000700104798004e00900032
:1045b400204090001d000700004f78004e0090003e
:1045c4003040900019000700304798004e009000da
:1045d400200090004800de006740600013000700e0
:1045e400404798004e009000404090000f000700a4
:1045f400504798004e009000200090004b00de00d1
:1046040000407800090007006047980072c0b300ba
:104614008e00780020c0b300b9ff07000100370006
:1046240010c0b3000080fa00000006000400fa0085
:10463400204798002e4090008080fb00d0cc2c00b6
:104644000008b8004308de00004f78009e40780060
:10465400400020000008dd00004f78002e4090004c
:104664000081fb00d0cc2c000010b8004308de0011
:104674006a00b9000000780000005100204798004b
:104684002e4090001e4f40001e4078000080fa002b
:10469400000006000000fa0061000700c6000700e1
:1046a40051010700e200070001003700000000008c
:1046b40000c72000104078000004e00001003a0028
:1046c4009603070060c72000104078000004e00053
:1046d40001003a00a2f60700c0c72000104078008d
:1046e4000004e00001003a003d04070020c8200057
:1046f400104078000004e00001003a00780407004c
:1047040080c82000104078000004e00001003a0056
:1047140052010700e0c82000104078000004e000c7
:1047240001003a008504070040c9200010407800c9
:104734000004e00001003a0029fc0700a0c92000a1
:10474400104078000004e00001003a0092040700e1
:1047540000ca2000104078000004e00001003a0084
:104764007702070060ca2000104078000004e000cf
:10477400ceff3a009f040700cdff37000200fa0085
:10478400004f78001e80fb006600b90080007800ae
:1047940000c72000008040008040eb000148780002
:1047a4000080fa00000006000200fa00004f7800c2
:1047b4001e80fb006600b9008000780000c720005e
:1047c4000080400021c0b300014878000080fa0056
:1047d400000006000400fa00004f7800110798005a
:1047e4001e80fb006600b9008000780020c720000e
:1047f400008040009e009000010878001e80fb00ad
:104804006600b9008000780000c7200000804000e6
:1048140011c0b300014878000080fa0000000600cf
:104824000000fa0040802000d03388008e26ef007c
:1048340070f021001035880040002000b035880059
:10484400c00720005036880000182000f036880089
:10485400303f2000b0338800f0ff29005034880036
:10486400408f2f00f034880050ff2f0090358800cf
:104874000080eb0030368800f0eb2f00d036880043
:104884008826ef009c26ef00b026ef00c426ef0038
:10489400d826ef00ec26ef008626ef009a26ef00dc
:1048a400ae26ef004000200010368800d626ef0028
:1048b400ea26ef007c26ef009026ef00a426ef0006
:1048c400b826ef00cc26ef00e026ef00003f2000e2
:1048d400f03388009226ef00a626ef00ba26ef00f8
:1048e400e226ef0001088000f00b20000081600048
:1048f4006004200071052000031020008049780026
:104904008149780082497800313f8000f00f280007
:10491400808060000030200001007000303f88007b
:10492400a13d800000fc2f0000806000a001b300c6
:10493400a03d8800f13e8000f00f280080806000d8
:104944000030210001007000f03e8800913d80009d
:10495400f00f2c008080600000c020000100700077
:10496400903d8800613f800000f82f0000806000c7
:104974005000b300603f8800b13d800000fc2f0070
:10498400008060007001b300b03d88000008800022
:10499400000178000260a00060042000710520007e
:1049a400031020008049780081497800824978000a
:1049b4000080fa00000006000000fa0041058000b3
:1049c400f0ff28000080600000c0a00040058800bf
:1049d4009021ef00f0e72300900c880000002800ed
:1049e400a00c88008860a9009860a8004106800097
:1049f400f0f82f00008060000040a000400688000e
:104a04007105800080ff2f00008060000000a0007e
:104a14007005880061058000f0ff280000806000b8
:104a240000c0a000600588000080fa0000000600b5
:104a34000000fa0000c720008040eb000148780025
:104a44000000eb009063880040c720008040eb002a
:104a54000148780060c7200021c0b30001487800f5
:104a64000000eb00c0638800a0c720008040eb007a
:104a740001487800b0c720008040eb00014878006e
:104a8400c0c7200021c0b300014878000000eb003b
:104a9400f063880000c820008040eb0001487800e3
:104aa40010c820008040eb000148780020c8200096
:104ab40021c0b300014878000000eb0020648800a6
:104ac40060c820008040eb000148780070c82000d6
:104ad4008040eb000148780080c8200021c0b3006a
:104ae400014878000000eb0050648800c0c8200032
:104af4008040eb0001487800d0c820008040eb00e3
:104b040001487800e0c8200021c0b30001487800c3
:104b14000000eb008064880020c920008040eb0086
:104b24000148780030c920008040eb00014878003b
:104b340040c920008040eb00014878000000eb00f1
:104b4400b064880080c920008040eb0001487800f0
:104b540090c920008040eb0001487800a0c92000e3
:104b640021c0b300014878000000eb00e064880035
:104b7400e0c920008040eb0001487800f0c9200023
:104b84008040eb000148780000ca20008040eb0020
:104b9400014878000000eb001065880040ca20003e
:104ba4008040eb000148780050ca20008040eb00b0
:104bb4000148780060ca200021c0b3000148780091
:104bc4000000eb0040658800a0ca20008040eb0094
:104bd40001487800b0ca20008040eb00014878000a
:104be4000080fa00000006000000fa000007280018
:104bf400303a88004827ef0000a32000503a88008c
:104c040060002000603a88004e27ef005027ef0034
:104c14005627ef005a27ef00f422ef000080fa0035
:104c2400000006000200fa00004f78001e80fb001e
:104c3400603a88004627a800000000000000000039
:104c4400303a8000610060000000e000fcff3200a8
:104c5400903880000080fa00000006000000fa008e
:104c6400881f7800c0c82000104078000080fb0036
:104c7400e40f500079003200e40f50000c003c00b7
:104c8400e10f500026003200e10f500003003c0009
:104c94000000e0000f00320026013700e20f500050
:104ca4002d003200e30f50005e0032002101370076
:104cb400e60f5000aa003200e60f50009a003500bb
:104cc400e70f5000d9003200e80f5000e500320031
:104cd400180137003068ef006000b80040678800b2
:104ce400516788006000b8006067880071678800b9
:104cf4006000b80080678800916788006000b80091
:104d0400a0678800b1678800c0c820001040780000
:104d14008040e800c0c82000014878000501370041
:104d240060c0b300bfff0700a0418800a04180001d
:104d34008000eb00aeee0700b0418800c14188005e
:104d4400c0c82000104078008040e800c0c820009f
:104d540001487800f7003700b0418000c14180006d
:104d640082eb210053052400e1ee070002002c0031
:104d7400f347240058ee0700b0418800c141880081
:104d8400b0418000c14180000200200003132400d0
:104d9400d7ee0700406788005167880040678000ad
:104da4005167800018c0b3000200200003172400dc
:104db4008dee07000000e00001003c000044eb0021
:104dc4000804e0000b003a0040678000516780004f
:104dd40018c0b300020020008312240080ee0700f4
:104de4000000e000010035000044eb000804e0008e
:104df400020032003008a900010037003008a80082
:104e0400a100200040c0b30072fe0700c0c820000b
:104e1400104078008040e800c0c8200001487800b5
:104e2400c400370070c0b3007eff0700a0418800b3
:104e3400a04180008000eb006dee0700b0418800c7
:104e4400c1418800c0c82000104078008040e800bc
:104e5400c0c8200001487800b6003700b041800087
:104e6400c141800082eb210053052400a0ee07001d
:104e740002002c00f347240017ee0700b04188001d
:104e8400c1418800b0418000c1418000020020007f
:104e94000313240096ee070060678800716788009a
:104ea400606780007167800018c0b300a299290070
:104eb400930824004cee07000000e00001003c00d1
:104ec4000044eb000804e0000b003a006067800037
:104ed4007167800018c0b30002002000030824009a
:104ee4003fee07000000e000010035000044eb0045
:104ef4000804e000020032003028a9000100370055
:104f04003028a800a100200040c0b30031fe0700f3
:104f1400c0c82000104078008040e800c0c82000cd
:104f2400014878008300370080c0b3003dff0700cc
:104f3400a0418800a04180008000eb002cee070017
:104f4400b0418800c1418800c0c8200010407800ea
:104f54008040e800c0c82000014878007500370090
:104f6400b0418000c141800082eb21005305240040
:104f74005fee070002002c00f3472400d6ed070083
:104f8400b0418800c1418800b0418000c141800027
:104f9400020020000313240055ee070080678800f8
:104fa40091678800806780009167800018c0b30013
:104fb40002002000030624000bee07000000e000be
:104fc40001003c000044eb000804e0000b003a0040
:104fd400806780009167800018c0b3006266260075
:104fe40063042400feed07000000e000010035002a
:104ff4000044eb000804e000020032003048a9003d
:10500400010037003048a800a100200040c0b300d0
:10501400f0fd0700c0c82000104078008040e80080
:10502400c0c82000014878004200370090c0b30097
:10503400fcfe0700a0418800a04180008000eb0036
:10504400ebed0700b0418800c1418800c0c82000d2
:10505400104078008040e800c0c820000148780073
:1050640034003700b0418000c141800082eb210050
:10507400530524001eee070002002c00f347240011
:1050840095ed0700b0418800c1418800b04180001f
:10509400c1418000020020000313240014ee070025
:1050a400a0678800b1678800a0678000b1678000ae
:1050b40018c0b3003233230033ff2300caed0700c6
:1050c4000000e00001003c000044eb000804e000a4
:1050d4000b003a00a0678000b167800018c0b300dd
:1050e400a299290093fd2300bded07000000e00014
:1050f400010035000044eb000804e0000200320027
:105104003068a900010037003068a800d0c820002a
:1051140011c0b30001487800813e200040c0b300b4
:10512400acfd0700c0c8200011c0b30001487800de
:10513400000000004f0478000080fa000000060020
:105144000000fa0040ca2000104078000080fb00f4
:10515400e10f500014003200e10f500003003c0046
:105164000000e0000600320033003700e20f500078
:1051740018003200e30f5000210032002e003700e7
:1051840034000700a100200080c0b30091fd070097
:1051940040ca2000104078008040e80040ca200047
:1051a400014878002900370030042000901d880051
:1051b400a100200080c0b30086fd070040ca200083
:1051c400104078008040e80040ca20000148780080
:1051d4001e003700d0002000901d8800a100200090
:1051e40080c0b3007bfd070040ca20001040780057
:1051f4008040e80040ca20000148780013003700ce
:105204002e68ef00a01d8000004078002ee8b70053
:10521400a100200080c0b3006efd07002ec8bf00af
:105224000004e000080032002ec8bf000000fb00ac
:10523400901d88000500370040ca20008040eb0024
:105244000148780001003700000000000080fa00e7
:10525400000006000000fa0080002000701d880095
:10526400b023ef0020022000b01d8800b823ef0017
:105274009bc0a800afe3a800b143a800b183a80075
:105284008fc6a800a266a8002468ef0008003700b3
:1052940024c8bf000080fb0081ba20000041eb005d
:1052a4008270780024c8bf000040e80024e8b700fa
:1052b400418220009140780010c3b30080cf500099
:1052c400f3ff36001c68ef001d68ef002c68ef0048
:1052d4002d68ef001e28ef000080fa000000060091
:1052e4000000fa001cc8bf000080fb00a11d800064
:1052f40001417800a1bd2000827078001cc8bf0065
:105304000040e8001ce8b700c1812000914078000b
:1053140010c3b30080cf5000010036001c68ef00ba
:105324001dc8bf000040e8001de8b7000080fa0077
:10533400000006000200fa000040eb00004f780075
:105344009bc0a9002cc8bf000080fb00a1bd2000a9
:10535400614f78002cc8bf000040e8002ce8b7007b
:10536400c18220009140780010c3b30080cf500068
:10537400010036002c68ef001dc8bf000040e900a2
:105384001de8b7009bc0a8001e4078000080fa000a
:10539400000006000200fa00881f7800000f780061
:1053a400340037002bc8bf000004e0002f003a008f
:1053b400f0408000ea0f5000010036002a68ef0038
:1053c4002ac8bf000080fb001e044000d9ff07006c
:1053d400004c78001e28ef002ac8bf000004e0003b
:1053e400140032002ac8bf000080fb001e004000e9
:1053f40010407800ea4f50000e003a002ac8bf005f
:105404000080fb000000e9001e004000104078000e
:10541400ed4f500007003a0010c0b3002be8b7006e
:105424002ac8bf000040e90020e8b7002a68ef005e
:10543400130037002ac8bf000040e8002ae8b7007c
:10544400a18220009140780020c3b30080cf500097
:10545400080036002ac8bf000040e9002ae8b70067
:1054640010c0b3002de8b700020037001e28ef007b
:10547400030037001dc8bf000004e000c9ff3a0064
:105484004f0478000080fa00000006000400fa00cf
:1054940010079800e0c1b300004f7800000000003e
:1054a4000100370000000000811d80000010200072
:1054b400008060000000e000fbff32001e0090004e
:1054c400104078000080fb00901d88001e80fb00c7
:1054d4009e0090001141780061962000827078004f
:1054e4001e0090000000e800100798001e009000c5
:1054f400104078000004e000eaff3a0000000000d9
:10550400811d800000102000008060000000e00089
:10551400fbff32000080fa00000006000000fa00e1
:1055240040c72000104078000080fb00e10f5000cd
:105534001d003200e10f500003003c000000e000b9
:105544000600320058003700e20f500025003200f8
:10555400e30f50003e0032005300370020c0b30078
:1055640086fc070000c820008040eb00014878005a
:1055740040c0b30081fc0700c0c820008040eb009d
:1055840001487800d0c820008040eb000148780032
:1055940040c72000104078008040e80040c7200049
:1055a4000148780040003700d0c82000104078003f
:1055b4000004e00037003200804180006400600095
:1055c4000000e000350032007b46a80040c7200000
:1055d400104078008040e80040c72000014878006f
:1055e4003100370030c8bf00ef4f50002d003a00a3
:1055f40020c0b30061fc070000c8200031c0b30024
:105604000148780010c0b3005cfc0700a0c720006c
:105614008040eb000148780060c0b30057fc0700ed
:1056240080c920008040eb000148780090c9200028
:105634008040eb000148780040c72000104078000b
