:020000040000fa
:080000000001040000000000f3
:020000040000fa
:04000800fe020000f4
:020000040000fa
:04000c00fe020000f0
:020000040000fa
:04001000fe020000ec
:020000040000fa
:04001400fe020000e8
:020000040000fa
:04001800fe020000e4
:020000040000fa
:04001c00fe020000e0
:020000040000fa
:04002000fe020000dc
:020000040000fa
:04002400fe020000d8
:020000040000fa
:04002800fe020000d4
:020000040000fa
:04002c00fe020000d0
:020000040000fa
:04003000fe020000cc
:020000040000fa
:0400340004020000c2
:020000040000fa
:04003800fe020000c4
:020000040000fa
:04003c00fe020000c0
:020000040000fa
:04004000fe020000bc
:020000040000fa
:04004400fe020000b8
:020000040000fa
:04004800fe020000b4
:020000040000fa
:04004c00fe020000b0
:020000040000fa
:04005000fe020000ac
:020000040000fa
:04005400d0020000d6
:020000040000fa
:04005800fe020000a4
:020000040000fa
:04005c00fe020000a0
:020000040000fa
:04006000fe0200009c
:020000040000fa
:04006400fe02000098
:020000040000fa
:04006800fe02000094
:020000040000fa
:04006c00fe02000090
:020000040000fa
:04007000fe0200008c
:020000040000fa
:04007400fe02000088
:020000040000fa
:04007800fe02000084
:020000040000fa
:04007c00fe02000080
:020000040000fa
:04008000fe0200007c
:020000040000fa
:04008400fe02000078
:020000040000fa
:04008800fe02000074
:020000040000fa
:04008c00fe02000070
:020000040000fa
:04009000fe0200006c
:020000040000fa
:04009400fe02000068
:020000040000fa
:04009800fe02000064
:020000040000fa
:04009c00fe02000060
:020000040000fa
:0400a000ac020000ae
:020000040000fa
:0400a400fe02000058
:020000040000fa
:0400a800fe02000054
:020000040000fa
:0400ac00fe02000050
:020000040000fa
:0400b000fe0200004c
:020000040000fa
:0400b400fe02000048
:020000040000fa
:0400b800fe02000044
:020000040000fa
:0400bc00fe02000040
:020000040000fa
:0400c000fe0200003c
:020000040000fa
:0400c400fe02000038
:020000040000fa
:0400c800fe02000034
:020000040000fa
:0400cc00fe02000030
:020000040000fa
:0400d000fe0200002c
:020000040000fa
:0400d400fe02000028
:020000040000fa
:0400d800fe02000024
:020000040000fa
:0400dc00fe02000020
:020000040000fa
:0400e000fe0200001c
:020000040000fa
:0400e400fe02000018
:020000040000fa
:0400e800fe02000014
:020000040000fa
:0400ec00fe02000010
:020000040000fa
:0400f000fe0200000c
:020000040000fa
:0400f400fe02000008
:020000040000fa
:0400f800fe02000004
:020000040000fa
:0400fc00fe02000000
:020000040000fa
:04010000fe020000fb
:020000040000fa
:04010400fe020000f7
:020000040000fa
:04010800fe020000f3
:020000040000fa
:04010c00fe020000ef
:020000040000fa
:04011000fe020000eb
:020000040000fa
:04011400fe020000e7
:020000040000fa
:04011800fe020000e3
:020000040000fa
:04011c00fe020000df
:020000040000fa
:04012000fe020000db
:020000040000fa
:04012400fe020000d7
:020000040000fa
:04012800fe020000d3
:020000040000fa
:04012c00fe020000cf
:020000040000fa
:04013000fe020000cb
:020000040000fa
:04013400fe020000c7
:020000040000fa
:04013800fe020000c3
:020000040000fa
:04013c00fe020000bf
:020000040000fa
:04014000fe020000bb
:020000040000fa
:04014400fe020000b7
:020000040000fa
:04014800fe020000b3
:020000040000fa
:04014c00fe020000af
:020000040000fa
:04015000fe020000ab
:020000040000fa
:04015400fe020000a7
:020000040000fa
:04015800fe020000a3
:020000040000fa
:04015c00fe0200009f
:020000040000fa
:04016000fe0200009b
:020000040000fa
:04016400fe02000097
:020000040000fa
:04016800fe02000093
:020000040000fa
:04016c00fe0200008f
:020000040000fa
:04017000fe0200008b
:020000040000fa
:04017400fe02000087
:020000040000fa
:04017800fe02000083
:020000040000fa
:04017c00fe0200007f
:020000040000fa
:04018000fe0200007b
:020000040000fa
:04018400fe02000077
:020000040000fa
:04018800fe02000073
:020000040000fa
:04018c00fe0200006f
:020000040000fa
:04019000fe0200006b
:020000040000fa
:04019400fe02000067
:020000040000fa
:04019800fe02000063
:020000040000fa
:04019c00fe0200005f
:020000040000fa
:0401a000fe0200005b
:020000040000fa
:0401a400fe02000057
:020000040000fa
:0401a800fe02000053
:020000040000fa
:0401ac00fe0200004f
:020000040000fa
:0401b000fe0200004b
:020000040000fa
:0401b400fe02000047
:020000040000fa
:0401b800fe02000043
:020000040000fa
:0401bc00fe0200003f
:020000040000fa
:0401c000fe0200003b
:020000040000fa
:0401c400fe02000037
:020000040000fa
:0401c800fe02000033
:020000040000fa
:0401cc00fe0200002f
:020000040000fa
:0401d000fe0200002b
:020000040000fa
:0401d400fe02000027
:020000040000fa
:0401d800fe02000023
:020000040000fa
:0401dc00fe0200001f
:020000040000fa
:0401e000fe0200001b
:020000040000fa
:0401e400fe02000017
:020000040000fa
:0401e800fe02000013
:020000040000fa
:0401ec00fe0200000f
:020000040000fa
:0401f000fe0200000b
:020000040000fa
:0401f400fe02000007
:020000040000fa
:0401f800fe02000003
:020000040000fa
:0401fc00fe020000ff
:020000040000fa
:10020000af5921000eff27000e01880000000000fa
:10021000000020000000e000020032000001200089
:100220002002880014000700f60007000000e0002c
:1002300003003a00607e2300010020000200370026
:100240000000200001002000810f7000010032003a
:1002500014000700000020000000e000020032004f
:100260000000020000000000a62b020000000000b9
:100270000040da000000fe004440a900a032200047
:100280000000e00003003200002020009001880000
:100290004440a800000006008a1f78008b1f7800e9
:1002a00000000600a1028800800478000000eb0036
:1002b0001f003700e284440054a0b4009905ba003e
:1002c000e284440054a0b4009906ba00e2844400d9
:1002d00054a0b4000006eb00476fde00fd07b2003b
:1002e000ae018800636ce10003003a00eaff0700fa
:1002f0000000eb000e003700606ce10008003a00df
:10030000004deb000a05e800020039003420ec0043
:100310000af0a0008b05e900f9ff3e000400370059
:100320006168e100010032000086eb000b0007006d
:1003300019c7ba001905ba000e04e00003003a001c
:100340000a00e000dbff3a0000000600fe07b200f2
:10035000ae0288008a047800f5ff37000cd0a300b5
:10036000e20f4d001c00390089027800354dba00bb
:100370000a05e800020039003420ec000af0a00071
:100380008b05e9000f003200254dba000a05e80090
:10039000020039003420ec000af0a0008b05e900cf
:1003a000080032000c00e0000600320015cdba0053
:1003b0000a05e800020039003420ec000af0a00031
:1003c0008b05e9008984e80054a0b4000b00e0002c
:1003d000e2ff3a00000006009902ba00055d7800cd
:1003e0008b05e900f7ff3200c82ade00055d7800c2
:1003f0008b05e900f3ff32000c00e000f1ff320052
:1004000019ddba00eeff3700809fbe00829fbe005c
:100410000200fa00c0048000680060000000e000f4
:100420004800320040048000680060000000e000e6
:1004300044003200f04080000000e0000300320081
:10044000f04080000000e900f04088000040eb0030
:10045000004f7800380037001e4078000080fb0015
:100460006600b90080007800e05421000080400060
:1004700010407800e14f50002c003a001e407800f8
:100480000080fb006600b900000078008080e80072
:10049000e054210000804000100078000000e000df
:1004a000100032001e4078008081fb001e40780062
:1004b0000080fb006600b900000078008080e80042
:1004c000e054210000804000100078000001e900a5
:1004d0006618b900800078000055210000804000b7
:1004e000020878001e4078000080fb006600b9001a
:1004f000000078008080e800e05421000080400087
:10050000100078000000e00008003a001e4078006b
:100510000080fb006600b90080007800e0542100f4
:10052000008040008040eb00014878001e407800c9
:100530000040e800004f78001e407800e94f50006e
:10054000c5ff36008860a9000080fa004f01be0098
:100550004f00be0000400600801f78000000fa0037
:10056000801d8000610060000000e0000900320092
:10057000a01d80000040780080e8b70080c8bf0060
:100580000004e0000300320080c8bf000000fb0050
:10059000901d88000080fa004f007800004006009f
:1005a0003600f800809fbe00829fbe00849fbe0080
:1005b000869fbe000000fa0004003700b50b07005c
:1005c000e04380000000e800e0438800d01c800089
:1005d000610060000000e000f8ff3a008960a900b7
:1005e0000080fa004f03be004f02be004f01be0064
:1005f0004f00be003600f900004006000040da005f
:100600000000fe0000000500889fbe008a9fbe001b
:100610008c1f78006a0007007100330003866c00ad
:100620006450e1002e0032006420e100330032000b
:100630006150e1002f0032006120e1003100320002
:1006400085855500eb07b000090020000804200054
:10065000050037000804440089844c000a0031007a
:100660000603430087834b000001530081815b0038
:10067000f8ff33000203be000800a0000804440095
:1006800089844c00f6ff3900c639dd008301730010
:1006900001003200130020008904d1000884d30037
:1006a0000998a300050032000800a7000300a0007d
:1006b0008904d1000884d3008b05e8008904d100a7
:1006c0000884d3000001eb000281d200160007006d
:1006d00001f0a1000cf0a70001f0a00049003700d4
:1006e0006420e1004b0032000801be000200be00a1
:1006f000f7ff37006120e100460032006000b800db
:10070000f3ff37000000200001f82700f0ff37005a
:100710001400200089003700f4ff2f008700370005
:100720006011b800a00037008100200061805500f2
:100730000b003d000b00200061fe2f000100e100d6
:100740001d00340082817100610164008904d100c0
:100750000884d3000000e800faff3a00710020008e
:1007600061006400030070000200600009003200b4
:1007700061044400e0844c000988a50005003200b3
:100780008b05e8006808e10002003a008904d10006
:100790000884d300f20f20000258e10005003d005c
:1007a000c75ddd00f907b200898075000800780098
:1007b000000006000bf827008b0078000000050001
:1007c0000004be00a70007000003be000405be0031
:1007d0000200be00a3000700844f75000000060061
:1007e0000200be006450e100050036006420e10014
:1007f000020036000968a30001003a000800be00ac
:100800000160a0004f0678004f05be004f04be00f7
:1008100000000600f0ff2f00f1ff2700f9ff37006e
:10082000889fbe008a9fbe008c1f7800e4ff0700ef
:10083000ebff330003866c006450e10024003200bb
:100840006420e100270032006150e1002200320004
:100850006120e100210032008b854200eb07b100ee
:100860000134b800003ab8000804420089844a0004
:10087000013ab8000030b8008880400009014a0001
:10088000040033000000400081804800020149005c
:100890008b05e900c909dd00830170000100320009
:1008a00013002000c814de004814dd004709de00f4
:1008b0001200b200c808de00088470009aff07002a
:1008c00001f0a1000cf0a70001f0a000cdff37005f
:1008d0006120e100cfff32000801be000200be002f
:1008e000f7ff37006150e100fcff3a00c9ff370015
:1008f0006022b800060220000000d0008180d200f3
:100900000482d2008582d2000000a00002025200c0
:1009100083825a00030031000202420083824a00af
:100920000000a1000603e900f3ff3a000000060002
:10093000efff07000400be0000000600889fbe0015
:100940008a9fbe00841f78009dff07004f0078003b
:1009500011003300f0ff2f00838f6c0006003b0076
:10096000040565000a00a7000800370009f0a6008a
:100970001000200008003700820f5400838f5c00b5
:10098000030039001000200001003e00000020009c
:1009900009f0a7000000ea004f05be004f04be00aa
:1009a0000000e00000000600889fbe008a9fbe0095
:1009b000008270000402710004827100260032007f
:1009c0000004be000200be006011b8006b092000e8
:1009d000950220000182cf000a0039000541b100d4
:1009e0000082cf00070039000541b1000982cf0025
:1009f000040039000541b1000882cf000100390030
:100a00000541b10005425200120032000a003b00cd
:100a100082817100610164008100d1000080d300f7
:100a20008984d3000884d3008b05e8000442e800e1
:100a3000f7ff3a00070037000804440089844c009f
:100a400000004800818048008b05e9000442e9006d
:100a5000f9ff3a0034ff07004f05be004f04be0007
:100a600000000600c70ade00f107b200f50fb20071
:100a700008003200e1cf4200020032000170a00005
:100a800024000500810f70000100320004080500f9
:100a900044000500810f700002003a0014000500b8
:100aa0008502e9000000400081c04800fcff3b00d7
:100ab0000170a000240005008001780002003700ca
:100ac000815978000201e9000200e000fcff3a00d1
:040ad000000006001c
:020000040000fa
:100ad4002b4300004d4700004c3a0000200000006a
:100ae4002b4300004c430000433a00002000000068
:100af400415400000d00000041540000264b00004a
:100b0400300d00000041000054450000300d00008d
:100b140000410000542b000049500000523d0000e9
:100b24003131000035320000303000000d0000008b
:100b3400415400002b43000043490000440d0000d1
:100b440000450000525200004f52000000410000d6
:100b5400542b000043470000534e00000d000000da
:100b640041540000493900000d00000041540000c8
:100b74002b430000474d00004d0d000000410000d4
:100b8400542b000043500000494e00003f0d00006c
:100b9400002b000043500000494e00003a200000a2
:100ba4005245000041440000590000002b4300005e
:100bb400504900004e3a000020530000494d000007
:100bc40020500000494e000000410000542b00005a
:100bd40043500000494e00003d2200000022000066
:100be4000d000000415400002b4300004d4500005f
:100bf400453d0000300d000000410000542b000072
:100c040049460000433d0000322c0000320d000034
:100c140000410000542b0000434d000047460000f3
:100c24003d3100003b2b0000434e00004d490000c5
:100c34003d3000002c3000002c3000002c3000002f
:100c44002c3000000d00000041540000533000001f
:100c54003d3000003b530000373d000032350000ba
:100c6400350d000000410000542b000043520000e9
:100c7400433d0000300d000000410000542b0000f3
:100c840043520000534c00003d3000000d000000b2
:100c9400415400002b430000465500004e3d000027
:100ca400310d000000410000542b0000434c0000b3
:100cb400495000003d3000003b2b0000434c000035
:100cc400495200003d3000003b2b0000434f000020
:100cd4004c5000003d3000000d0000004154000065
:100ce4002b43000052450000473f00000d00000068
:100cf4002b43000052450000473a0000203000001a
:100d04002c310000002b0000435200004547000036
:100d14003a200000302c0000350000002b43000076
:100d240052450000473a0000203000002c330000f8
:100d3400002b000043520000454700003a20000009
:100d4400302c0000300000002b430000524500000e
:100d5400473a0000203000002c340000004100001d
:100d6400542b000055460000545000003d30000054
:100d74002c220000353400002e330000382e0000f1
:100d840031380000392e000038300000220d0000f8
:100d940000410000542b0000554600005450000050
:100da4003d3200002c220000636c0000656d0000e1
:100db400656e0000742200000d0000004154000024
:100dc4002b55000046540000503d0000332c000019
:100dd40022250000436c0000656d00002422000001
:100de4000d000000415400002b5500004654000043
:100df400503d0000362c0000310d00000041000081
:100e0400542b000055460000545000003d370000ac
:100e14002c320000310d000000410000542b000072
:100e240055500000534400003d3000002c310000b8
:100e34002c2200006d6d0000736200006f750000cd
:100e440079670000746500006c2e0000636f000079
:100e54006d2e00006d6e0000633000003230000023
:100e64002e6d00006363000032300000382e000055
:100e74006770000072730000220d00000041000042
:100e8400542b00005550000053440000413d000025
:100e9400302c0000330d000000410000542b0000f2
:100ea4005546000054500000433d0000310d000041
:100eb400002b00005555000046540000504300002c
:100ec400523a0000203100002c310000002b0000b9
:100ed400555500004654000050430000523a0000ab
:100ee400203100002c30000000410000542b000091
:100ef4005546000054500000433d000031300000ce
:100f04002c220000576f0000726b000021220000a9
:100f14000d00000052200000504100005553000015
:100f24005441000020500000415500003d220000c3
:100f340000220000205300005450000041550000de
:100f44003d000000205300005447000050530000af
:100f54003d0000005220000053540000204d0000ca
:100f6400453d000000200000454500003d00000014
:100f7400204e00003d000000204e00003d5a0000bd
:100f840000200000474d00003d0000002047000005
:100f9400533d000000200000474500003d000000d4
:100fa40020510000533d0000002000005153000078
:100fb4004d3d000000200000494e00003d000000af
:100fc400204f0000555400003d0000002053000055
:100fd400504300003d000000204700005053000033
:100fe4003d00000020530000525600003d00000068
:100ff4003000000031000000204f00005045000088
:101004003d00000020570000443d00000020000087
:10101400534800003d0000002053000048410000f8
:101024003d0000000a00000052200000564100006c
:101034004e41000020560000313200003d00000007
:1010440020560000342e0000323d00000020000035
:10105400563300002e3300003d00000020560000ef
:10106400453400003d0000002056000045330000d8
:101074003d00000020560000453200003d00000005
:1010840020560000453100003d00000020560000bd
:10109400505600003d00000020430000423d000087
:1010a4003100000020430000423d000030000000f9
:1010b400204600004f520000434500003d00000060
:1010c40020530000424300003d0000002053000074
:1010d400484300003d00000020440000504200004e
:1010e400433d000000000000436f000075630000f2
:1010f4006f750000200d0000006200006c610000ac
:10110400626c0000610000000d0a000054520000ef
:1011140041430000454900004e4600004f200000b6
:0411240000000000c7
:020000040000fa
:101128000200fa00004f78001e407800ed4f500092
:10113800030032001e407800ea4f500044003a0095
:101148001dc8bf000004e000060032001dc8bf0033
:101158000080fb0081fd20000041eb0082707800d8
:101168001d68ef001dc8bf000080fb0081fd200046
:10117800c2c3b300827078001dc8bf000040e800f9
:101188001de8b7001e407800ed4f500011003a00ee
:101198001dc8bf000080fb0081fd200032c4b300e1
:1011a800827078001dc8bf000040e8001de8b70045
:1011b8001dc8bf000080fb0081fd200022c5b300d0
:1011c800827078001dc8bf000040e8001de8b70025
:1011d800100037001dc8bf000080fb0081fd200003
:1011e800c2c4b300827078001dc8bf000040e80088
:1011f8001de8b7001dc8bf000080fb0081fd20006e
:1012080062c4b300827078001dc8bf000040e800c7
:101218001de8b7001dc8bf000080fb0081fd20004d
:10122800e2c3b300827078001dc8bf000040e80028
:101238001de8b7001dc8bf000080fb0081fd20002d
:101248000041eb00827078001d68ef000d00370048
:10125800d18120009140780030c6b30080cf500083
:1012680008003e001dc8bf000080fb0081fd200073
:101278001e417800827078001dc8bf000040e80059
:101288001de8b7000080fa00000006000600fa001a
:10129800881f7800404798004e409000a0ff070044
:1012a80061832000914078004e40900080cf50002c
:1012b80003003a003728a800d0c0b30098ff070001
:1012c800c141800000102000008060000000e000a4
:1012d8003e0032004e4090000080fb00ed0f5000b1
:1012e8001b003200ed0f500003003c00ea0f5000d5
:1012f8002400320035003700b1042000810f50006f
:101308000b003200f1042000810f50002f003a003a
:1013180038c8bf00e24f500003003a0030c0b300a5
:1013280038e8b700290037003868ef002700370091
:1013380038c8bf00e34f500003003a0040c0b30074
:1013480038e8b700210037003868ef001f00370081
:1013580038c8bf000004e0000300320038c8bf00ee
:10136800e44f500004003a0038c8bf000040e800cd
:1013780038e8b7001500370010c0b30038e8b700e8
:101388001200370038c8bf00e14f50000300320098
:1013980038c8bf00e54f50000a003a0038c8bf00ff
:1013a8000040e80038e8b70038c8bf00e64f5000f2
:1013b80002003a003928a8003908a90000000000f6
:1013c800020037003868ef00000000004e4090002f
:1013d800ea4f500010023a001ac8bf00e14f50000f
:1013e8001b003a00c14180000020200000806000fe
:1013f8000000e00016003200608d80000000a000b0
:10140800608d880090938000a19380006100400067
:10141800e080480090938800a1938800602721000d
:1014280010407800e14f400005003200602721009d
:10143800104078008040e8006027210001487800cb
:101448001a68ef00608d80000030a100608d880070
:101458001bc8bf000004e000ed0132001bc8bf003c
:101468000080fb0081dd20000041eb0082707800e5
:1014780038c8bf00e54f50000600320038c8bf002a
:10148800e64f50000300320081dd200080ed20008f
:10149800b7150700608d8000610060000000e00063
:1014a800cf013a00608d8000620060000000e0001b
:1014b800cb013a001bc8bf00e74f5000710136004e
:1014c80072c0b300a156280080dd20008b150700ec
:1014d8000004e0006b01320010c0b300004f780038
:1014e800d10807001ac8bf000004e00094013a00c0
:1014f80010c0b3001ae8b700608d80000020a0007b
:10150800608d880070c0b300104798000027210044
:101518008040eb0001487800220037001e40900010
:101528000080fb0081dd2000e1407800f0c2b300bc
:1015380080cf5000180036001e4090000080fb004d
:1015480081dd2000e140780090c3b30080cf5000d7
:1015580011003e0000272100104078006a00b90001
:1015680000007800804078000027210001487800ba
:1015780000272100104478001e4090000080fb00e6
:1015880081dd200061407800960c0700804044000f
:1015980000272100014878001e4090000040e80024
:1015a800104798001bc8bf009e40900080cf500095
:1015b8000d0031001e4090000080fb0081dd2000fe
:1015c800614078000004e000070032001e409000ef
:1015d8000080fb0081dd2000e1407800c0c2b3003c
:1015e80080cf5000cdff3a001e4090000080fb00e5
:1015f80081dd2000e1407800c0c2b30080cf5000f8
:1016080017013a001e4090000040e800104798007b
:101618001e4090000080fb0081dd200061407800c2
:101628000004e000070032001e4090000080fb002c
:1016380081dd2000e1407800c0c2b30080cf5000b7
:10164800f0ff3a001e4090000080fb0081dd200082
:10165800e1407800c0c2b30080cf500000013a00da
:101668001e4090000040e800104798001e4090007f
:101678000080fb0081dd2000e140780020c2b3003b
:1016880080cf5000f6003a000040eb002047980059
:101698001e4090000040e800104798000f003700f7
:1016a8002e4090000081fb001e4090000080fb004f
:1016b80081dd2000e1407800e024210000004100a5
:1016c800014878001e4090000040e800104798004c
:1016d8002e4090000040e800204798001bc8bf003b
:1016e8009e40900080cf5000100031001e409000b6
:1016f8000080fb0081dd2000614078000004e000ec
:101708000a0032001e4090000080fb0081dd2000ae
:10171800e140780020c2b30080cf500003003200bf
:101728002e409000ee4f5000ddff36002e40900016
:101738008080fb00e0242100008040008040eb0016
:10174800014878001bc8bf009e40900080cf500021
:10175800c30031001e4090000080fb0081dd2000a6
:10176800614078000004e000bd0032001e40900097
:101778000040e800104798001e4090000080fb00e1
:1017880081dd2000614078000004e000070032009d
:101798001e4090000080fb0081dd2000e1407800c1
:1017a800c0c2b30080cf5000f0ff3a001e40900046
:1017b8000080fb0081dd2000e1407800c0c2b3005a
:1017c80080cf5000a6003a001e4090000040e8007c
:1017d800104798001e4090000080fb0081dd20002b
:1017e800614078000004e000070032001e409000cd
:1017f8000080fb0081dd2000e1407800c0c2b3001a
:1018080080cf5000f0ff3a001e4090000080fb009f
:1018180081dd2000e1407800c0c2b30080cf5000d5
:101828008f003a001e4090000040e80010479800e2
:101838001e4090000080fb0081dd2000e140780020
:1018480020c2b30080cf500085003a001e409000af
:101858000040e80010479800102721008040eb0066
:101868000148780012003700102721001040780046
:101878000081fb001e4090000080fb0081dd2000fd
:10188800e1407800e025210000004100014878008f
:101898001e4090000040e8001047980010272100e3
:1018a800104078008040e8001027210001487800a7
:1018b8001bc8bf009e40900080cf5000110031002f
:1018c8001e4090000080fb0081dd20006140780010
:1018d8000004e0000b0032001e4090000080fb0076
:1018e80081dd2000e1407800c0c2b30080cf500005
:1018f800040032001027210010407800e74f500004
:10190800d9ff360010272100104078008080fb00a6
:10191800e0252100008040008040eb00014878006d
:10192800030037001e4090000040e8001047980070
:101938001e4090000080fb0081dd2000614078009f
:101948000004e000070032001e4090000080fb0009
:1019580081dd2000e1407800c0c2b30080cf500094
:10196800f0ff3a001e4090000080fb0081dd20005f
:10197800e1407800c0c2b30080cf500038003a0080
:101988001e4090000040e8001047980010272100f2
:101998008040eb0001487800120037001027210032
:1019a800104078000081fb001e4090000080fb0082
:1019b80081dd2000e1407800602621000000410020
:1019c800114098001e4090000040e8001047980021
:1019d80010272100104078008040e80010272100df
:1019e800014878001bc8bf009e40900080cf50007f
:1019f800110031001e4090000080fb0081dd2000b6
:101a0800614078000004e0000b0032001e409000a6
:101a18000080fb0081dd2000e1407800b0c2b30007
:101a280080cf5000040032001027210010407800b9
:101a3800e74f5000d9ff36001027210010407800ea
:101a48008080fb0060262100008040008040eb0081
:101a580011409800608d80000020a100608d8800f2
:101a6800102721008040eb0001487800d01a21009f
:101a78008040eb000148780020c0b300004f780098
:101a88002f0037000040eb00004f7800c141800074
:101a980000202000008060000000e00028003a00dc
:101aa8001ac8bf00e14f500025003a000040eb0083
:101ab80010479800120037001027210010407800c6
:101ac8000081fb001e4090000080fb0081dd2000ab
:101ad800e1407800c01a2100000041001140980040
:101ae8001e4090000040e800104798001027210091
:101af800104078008040e800102721000148780055
:101b08001bc8bf009e40900080cf500005003100e8
:101b18001027210090407800f0c9b30080cf500012
:101b2800e5ff360010272100104078008080fb0078
:101b3800c01a2100008040008040eb00114098004e
:101b48001ac8bf00e14f500025003a001e40780037
:101b5800e14f500005003200c14180000020200004
:101b6800008060000000e0001d003200608d8000f1
:101b78000000a000608d880090938000a1938000f1
:101b880061004000e080480090938800a19388009d
:101b98001a68ef006027210010407800e14f4000ec
:101ba8000500320060272100104078008040e800de
:101bb80060272100014878001e4078000004e000fa
:101bc80004003200608d80000030a000608d880025
:101bd80003003700608d80000030a100608d880010
:101be8001ac8bf000004e00009003a0072c0b30040
:101bf8002157280080dd2000c01307000004e00002
:101c0800030032001cc8bf000040e8001ce8b70011
:101c18001b68ef000b0037004e409000ed4f50005e
:101c2800080032001bc8bf000080fb0081dd2000d7
:101c38004e419000827078001bc8bf000040e80049
:101c48001be8b7004f0478000080fa000000060087
:101c58000000fa0080552100104078000080fb0049
:101c6800cf80de00820c200003002000820f50008d
:101c7800838f5800e4053e0000600100c80037006b
:101c8800d3003700e3003700f60037000e013700b5
:101c980026013700410137006a0137008501370006
:101ca800ae013700c9013700f20137000d023700d5
:101cb80036023700510237007b023700d205370061
:101cc800d1053700880237009e023700ce0537005d
:101cd800a8023700bb023700ce023700df02370008
:101ce800f20237000503370018033700c60537002e
:101cf800c5053700c4053700c3053700c2053700de
:101d0800c1053700c0053700bf053700be053700dd
:101d1800bd053700bc053700bb053700ba053700dd
:101d2800b9053700b8053700b7053700b6053700dd
:101d3800b5053700b4053700b3053700b2053700dd
:101d4800b1053700b0053700af053700ae053700dd
:101d5800ad053700ac053700ab053700aa053700dd
:101d6800a9053700a8053700a7053700a6053700dd
:101d7800a5053700a4053700a3053700a2053700dd
:101d8800a1053700a00537009f0537009e053700dd
:101d98009d0537007904370091043700a9043700fe
:101da800c0043700d7043700ee04370005053700b4
:101db8001c053700360537005b05370092053700ec
:101dc80091053700900537008f0537008e053700dd
:101dd8008d0537008c0537008b0537008a053700dd
:101de80089053700880537008705370086053700dd
:101df80085053700840537008305370082053700dd
:101e080081053700fd033700090437007e053700d8
:101e18007d0537007c0537007b0537007a053700dc
:101e280079053700780537007705370076053700dc
:101e380075053700740537007305370072053700dc
:101e480071053700700537006f0537006e053700dc
:101e58006d0537006c0537006b0537006a053700dc
:101e680069053700680537006705370066053700dc
:101e780065053700640537006305370062053700dc
:101e880061053700600537005f0537005e053700dc
:101e98005d0537005c0537005b0537005a053700dc
:101ea80059053700580537005705370056053700dc
:101eb80055053700540537005305370052053700dc
:101ec80051053700500537004f0537004e053700dc
:101ed8004d0537004c0537004b0537004a053700dc
:101ee80049053700480537004705370046053700dc
:101ef80045053700440537004305370042053700dc
:101f080041053700400537003f0537003e053700db
:101f18003d0537003c0537003b0537003a053700db
:101f280039053700380537003705370036053700db
:101f380035053700340537003305370032053700db
:101f480031053700300537002f0537002e053700db
:101f58002d0537002c0537002b0537002a053700db
:101f680029053700280537002705370026053700db
:101f780025053700240537002305370022053700db
:101f880021053700200537001f0537001e053700db
:101f98001d0537001c0537001b0537007f02370079
:101fa800b666a800500020004040880018050700c9
:101fb800ec0507008055210011c0b30001487800e6
:101fc800411f200010c0b300450e07000e05370062
:101fd800a135800000022000008060000000e000c1
:101fe800ea043a0010060700a057280086050700f3
:101ff80080382100f04088008055210021c0b300be
:1020080001487800411f200010c0b300340e0700bb
:10201800fd043700c14180000020200000806000de
:102028000000e00008003200ff050700803e2000a5
:10203800f0408800e057280073050700805521000c
:1020480031c0b30001487800f04080000000e00093
:10205800d0043a008055210011c0b300014878002f
:10206800e9043700c14180000020200000806000a2
:102078000000e00008003200eb0507005058280077
:102088006105070080382100f04088008055210054
:1020980041c0b30001487800f04080000000e00033
:1020a80005003a008055210021c0b300014878009e
:1020b8006000200070408800411f200010c0b3005d
:1020c800070e0700d0043700c1418000002020001f
:1020d800008060000000e00008003200d205070020
:1020e800b05828004805070080382100f0408800d3
:1020f8008055210051c0b30001487800f0408000ad
:102108000000e00005003a008055210031c0b3000e
:10211800014878006000200070408800411f2000be
:1021280010c0b300ee0d0700b7043700c1418000ae
:1021380000202000008060000000e0000b0032005a
:10214800b905070080ed20008040eb0001487800c9
:10215800a05928002c05070080382100f04088008d
:102168008055210061c0b30001487800f04080002c
:102178000000e00005003a008055210041c0b3008e
:10218800014878006000200070408800411f20004e
:1021980010c0b300d20d07009b04370080ed20006b
:1021a800104078000004e0001a003200c0ee200061
:1021b8008040eb000148780081ed2000d016210016
:1021c8006b12070052c0b300315a2800d016210004
:1021d8004a1207000004e000060032008055210082
:1021e800d1ccb3000148780060002000704088001e
:1021f80008003700d116210050ac20005c120700ff
:102208008055210071c0b300014878008038210052
:10221800f0408800f04080000000e00005003a002f
:102228008055210051c0b3000148780060002000ab
:1022380070408800411f200010c0b300a80d07009f
:1022480071043700c1418000002020000080600038
:102258000000e0000b0032007305070080ed20004d
:102268008040eb0001487800905a2800e6040700f7
:1022780080382100f04088008055210081c0b300db
:1022880001487800f04080000000e00005003a00b6
:102298008055210051c0b30001487800600020003b
:1022a80070408800411f200010c0b3008c0d07004b
:1022b8005504370080ed2000104078000004e0004d
:1022c8001a003200c0ee20008040eb000148780080
:1022d80081ed2000801421002512070052c0b300b0
:1022e800315a280080142100041207000004e0007d
:1022f800060032008055210021cdb3000148780046
:102308006000200070408800080037008114210018
:1023180060a82000161207008055210091c0b30064
:102328000148780080382100f0408800f0408000a3
:102338000000e00005003a008055210071c0b3009c
:10234800014878006000200070408800411f20008c
:1023580010c0b300620d07002b043700c141800094
:1023680000202000008060000000e0000b00320028
:102378002d05070080ed20008040eb000148780023
:10238800205b2800a004070080382100f040880066
:1023980080552100a1c0b30001487800f0408000ba
:1023a8000000e00005003a008055210071c0b3002c
:1023b800014878006000200070408800411f20001c
:1023c80010c0b300460d07000f04370080ed200051
:1023d800104078000004e0001a00320070ee20007f
:1023e8008040eb000148780081ed2000d0152100e5
:1023f800df11070052c0b300315a2800d015210060
:10240800be1107000004e0000600320080552100dc
:1024180041cdb3000148780060002000704088007a
:1024280008003700d1152100b0a92000d0110700fd
:1024380080552100b1c0b3000148780080382100e0
:10244800f0408800f04080000000e00005003a00fd
:102458008055210091c0b300014878006000200039
:1024680070408800411f200010c0b3001c0d0700f9
:10247800e5033700c1418000002020000080600093
:102488000000e0000b003200e704070080ed2000a8
:102498008040eb0001487800805b28005a04070060
:1024a80080382100f040880080552100c1c0b30069
:1024b80001487800f04080000000e00005003a0084
:1024c8008055210091c0b3000148780060002000c9
:1024d80070408800411f200010c0b300000d0700a5
:1024e800c903370080ed2000104078000004e000a8
:1024f8001a00320020ee20008040eb0001487800ee
:1025080081ed2000d01321009911070052c0b300bb
:10251800315a2800d0132100781107000004e00088
:10252800060032008055210001cdb3000148780033
:10253800600020007040880008003700d113210097
:1025480000ab20008a11070080382100f040880085
:1025580080552100d1c0b30001487800f0408000c8
:102568000000e00005003a0080552100b1c0b3002a
:10257800014878006000200070408800411f20005a
:1025880010c0b300d60c07009f033700c14180007c
:1025980000202000008060000000e0000b003200f6
:1025a800a104070080ed20008040eb00014878007e
:1025b800105c28001404070080382100f0408800cf
:1025c80080552100e1c0b30001487800f040800048
:1025d8000000e00005003a0080552100b1c0b300ba
:1025e800014878006000200070408800411f2000ea
:1025f80010c0b300ba0c07008303370080ed200039
:10260800104078000004e00023003200c2c0b3008c
:10261800b15c280080ed2000381107000004e000bc
:10262800060032008055210021c1b300014878001e
:1026380080382100f040880017003700e2c0b3005e
:10264800815d280080ed20002c1107000004e000c7
:102658000600320080552100f1c0b300014878001f
:1026680080382100f04088000b00370052c0b300ca
:10267800315a280080ed2000201107000004e000f6
:10268800050032008055210081cdb3000148780053
:102698006000200070408800411f200010c0b30077
:1026a8008f0c0700580337005f040700705e28008e
:1026b800d503070040ae2000ff030700105f280085
:1026c800d103070080382100f040880080552100a0
:1026d80021c1b30001487800411f200010c0b30099
:1026e8007f0c070048033700c1418000002020000c
:1026f800008060000000e000060032004a04070085
:10270800405f2800c00307008055210031c1b30095
:1027180001487800f04080000000e00005003a0021
:102728008055210001c1b3000148780060002000f5
:1027380070408800411f200010c0b300680c0700db
:102748003103370038040700803e2000f04088003d
:10275800f05f2800ac0307008055210051c1b30089
:1027680001487800411f200010c0b3005c0c07002e
:1027780025033700c1418000002020000080600050
:102788000000e0000800320027040700803e200017
:10279800f0408800b06028009b03070080552100a6
:1027a80061c1b30001487800f04080000000e000fb
:1027b800fa023a008055210021c1b300014878008f
:1027c80011033700c1418000002020000080600014
:1027d8000000e0000800320013040700803e2000db
:1027e800f0408800606228008703070080552100b8
:1027f80081c1b30001487800f04080000000e0008b
:10280800e8023a008055210021c1b3000148780050
:10281800fd023700c14180000020200000806000d8
:102828000000e00006003200ff030700803e2000a1
:10283800f04088008055210081c1b300014878002c
:10284800f04080000000e000d8023a0080552100e6
:1028580021c1b30001487800eb023700c141800074
:1028680000202000008060000000e0000800320026
:10287800ed030700803e2000f040880050632800e8
:10288800610307008055210091c1b3000148780019
:10289800f04080000000e000c6023a0080552100a8
:1028a80021c1b30001487800d7023700c141800038
:1028b80000202000008060000000e00008003200d6
:1028c800d9030700803e2000f0408800f06328000c
:1028d8004d03070080552100a1c1b30001487800cd
:1028e800f04080000000e000b4023a00805521006a
:1028f80021c1b30001487800c3023700c1418000fc
:1029080000202000008060000000e0000800320085
:10291800c5030700803e2000f0408800a06428001e
:102928003903070080552100b1c1b3000148780080
:10293800f04080000000e000a2023a00805521002b
:1029480021c1b30001487800af023700c1418000bf
:1029580000202000008060000000e0000800320035
:10296800b1030700803e2000f04088005065280031
:10297800250307008055210061c4b3000148780091
:10298800f04080000000e00090023a0080552100ed
:1029980021c1b300014878009b02370020182100ac
:1029a800104078000004e000040032008055210047
:1029b80001cfb3000148780093023700f04180004e
:1029c800610060000000e0000700320070408000f5
:1029d800e20f50007f02320080552100b1ceb300d3
:1029e800014878008802370070408000e80f5000e6
:1029f8000300320070408000e70f500078003a0072
:102a080025c8bf000004e000050032003928a800ee
:102a180080552100d1c1b300014878007a023700ff
:102a280026c8bf000004e0000400320080552100e1
:102a380021c8b300014878007302370090292100ab
:102a480010407800e34f500003003a0040948000a3
:102a58000020a100409488009029210010407800af
:102a6800e24f50000f003a0040948000620060007e
:102a78000000e00004003200409480006400600020
:102a88000000e00007003200409480000020a10010
:102a9800409488008055210081c4b3000148780023
:102aa800590237000141800070382100808f5000a2
:102ab800040036008055210021c3b3000148780086
:102ac8005102370041418000f07c2000808f500087
:102ad8000c00360090292100104078000004e00026
:102ae80004003a00d02a2100104078000004e000d9
:102af800040032008055210061c4b3000148780009
:102b080041023700d0418000610060000000e00011
:102b1800040032008055210001c5b3000148780047
:102b2800390237002cc8bf000004e000180032004a
:102b38005141800000772100808f5000140036003a
:102b480090292100104078000004e00010003a00ad
:102b5800d02a2100104078000004e0000c003a0060
:102b6800608d8000610060000000e00008003a000d
:102b780090958000610060000000e00004003a00c9
:102b88008055210081c7b300014878001e02370034
:102b98007019210090407800f0c3b30080cf500036
:102ba8000f003a0080192100104078000004e0006e
:102bb8000b003a0070408000e80f500008003a000f
:102bc800d027210010407800e54f5000040036005f
:102bd80080552100a1c7b300014878000a023700d8
:102be80070408000e80f50005e003a0090292100f4
:102bf800104078000004e0000b003a004094800088
:102c08000020a10040948800d02a210010407800bc
:102c1800e14f500004003a0080552100a1c5b300df
:102c280001487800f8013700609b8000610060006f
:102c38000000e0000400320080552100e1c6b30026
:102c480001487800f0013700608d80006400600062
:102c58000000e0000400320080552100d1c2b3001a
:102c680001487800e8013700608d8000620060004c
:102c78000000e0000400320080552100b1c2b3001a
:102c880001487800e00137009095800061006000fd
:102c98000000e0000a00320091958000000c20003e
:102ca800008060000000e00005003a008055210027
:102cb800c1c3b300014878002e28ef00d2013700c5
:102cc800608d8000610060000000e0000d003a00a7
:102cd800608d8000620060000000e00009003a009a
:102ce8007141800070bb2000808f500005003600c5
:102cf8008055210081c2b300014878002e28ef00da
:102d0800c101370090292100104078000004e0003c
:102d180008003200d02a2100104078000004e000aa
:102d2800040032008055210041c6b30001487800f4
:102d3800b501370040948000610060000000e000a9
:102d480004003a00e0948000610060000000e000a8
:102d5800040032008055210041c6b30001487800c4
:102d6800a901370070408000e80f500006003200cb
:102d780070408000e70f50000300320080552100aa
:102d8800b1ceb30001487800f041800062006000d5
:102d98000000e000910132009029210010407800e5
:102da8000004e0008f013a00d02a2100104078008a
:102db8000004e0008d013a00608d80006100600031
:102dc8000000e0008b013a00608d80006200600026
:102dd8000000e00089013a0070408000004078005f
:102de80030e8b7009000200070408800805521002e
:102df80091ccb30001487800830137008a020700ac
:102e080080ed20008040eb00014878000067280032
:102e1800fd01070080382100f04088002028ef00dd
:102e28008055210001c2b3000148780076013700bf
:102e3800c141800000202000008060000000e00008
:102e480047003200a2c0b300a167280080ed20002f
:102e58002a0f07000004e00006003a00a2c0b300f1
:102e68005168280080ed2000240f07000004e000ce
:102e78000800320040002000704088002368ef00fe
:102e88002468ef0010ee20001040780022e8b70018
:102e980030003700a2c0b3000169280080ed20008f
:102ea800160f07000004e0000700320080552100db
:102eb800b1ceb3000148780010ee20001040780031
:102ec80022e8b70050013700a2c0b300b16928005a
:102ed80080ed2000090f07000004e00006003a001a
:102ee800a2c0b300616a280080ed2000030f07002c
:102ef8000004e0001500320024c8bf000040e800cc
:102f080024e8b70024c8bf00e74f50000c00360083
:102f18002468ef0023c8bf000004e00002003a0064
:102f280010c0b30023e8b70080552100b1ceb3002c
:102f38000148780070002000704088003201370096
:102f480010ee20001040780022e8b7007000200042
:102f58007040880080552100f1c1b3000148780015
:102f6800f04080000000e00026013a008055210072
:102f780081ccb3000148780023013700c1418000ab
:102f880000202000008060000000e00008003200ff
:102f980025020700106b28009b01070080382100dc
:102fa800f04088008055210071c4b30001487800c2
:102fb800f04080000000e00005003a008055210044
:102fc80021c1b300014878006000200070408800eb
:102fd800411f200010c0b300410a07000a01370052
:102fe800c141800000202000008060000000e00057
:102ff800080032000c020700b06c280082010700ac
:1030080080382100f04088008055210081c4b30039
:1030180001487800f04080000000e00005003a0018
:103028008055210061c4b300014878006000200089
:1030380070408800411f200010c0b300280a070014
:10304800f1003700c14180000020200000806000ae
:103058000000e00008003200f3010700006e2800bd
:103068006901070080382100f04088008055210060
:1030780091c4b30001487800f04080000000e000ef
:1030880005003a008055210071c4b300014878005a
:103098006000200070408800411f200010c0b3006d
:1030a8000f0a0700c1418000002020000080600056
:1030b8000000e00008003200db010700406f280034
:1030c8005101070080382100f04088008055210018
:1030d800a1c4b30001487800f04080000000e0007f
:1030e80005003a008055210081c4b30001487800ea
:1030f8006000200070408800411f200010c0b3000d
:10310800f7090700c141800000202000008060000e
:103118000000e00008003200c3010700107028001a
:103128003901070080382100f040880080552100cf
:10313800b1c4b30001487800f04080000000e0000e
:1031480005003a008055210091c4b3000148780079
:103158006000200070408800411f200010c0b300ac
:10316800df090700c14180000020200000806000c6
:103178000000e00008003200ab010700f0702800f2
:103188002101070080382100f04088008055210087
:10319800c1c4b30001487800f04080000000e0009e
:1031a80005003a0080552100a1c4b3000148780009
:1031b8006000200070408800411f200010c0b3004c
:1031c800c7090700c141800000202000008060007e
:1031d8000000e00008003200930107001074280086
:1031e8000901070080382100f0408800805521003f
:1031f800d1c4b30001487800f04080000000e0002e
:1032080005003a0080552100b1c4b3000148780098
:103218006000200070408800411f200010c0b300eb
:10322800af090700c1418000002020000080600035
:103238000000e0000b0032007b01070080ed200059
:103248008040eb0001487800f0742800ee00070089
:1032580080382100f040880080552100e1c4b30087
:1032680001487800f04080000000e00005003a00c6
:1032780080552100c1c4b3000148780060002000d7
:1032880070408800411f200010c0b3009409070057
:1032980080ed2000104078000004e00017003200a4
:1032a800d2c0b300b175280080ed2000130e0700ce
:1032b8000004e0000600320080552100f1c4b3008c
:1032c8000148780080382100f04088000b00370062
:1032d800d2c0b3009176280080ed2000070e0700c9
:1032e8000004e0000500320080552100d1c4b3007d
:1032f800014878006000200070408800f04080009d
:103308000000e00005003a008055210051ceb300ce
:10331800014878006000200070408800813e20004d
:1033280010c0b3006e090700c141800000202000d2
:10333800008060000000e000080032003a01070049
:1033480070772800b000070080382100f04088001e
:103358008055210011c5b30001487800f040800075
:103368000000e00005003a0080552100f1c4b300d8
:10337800014878006000200040408800411f20007c
:1033880010c0b300560907001f00370000000000f6
:103398001d003700000000001b003700000000007f
:1033a8001900370000000000170037000000000077
:1033b800150037000000000013003700000000006f
:1033c80011003700000000000f0037000000000067
:1033d8000d003700000000000b003700000000005f
:1033e8000900370000000000070037000000000057
:1033f800050037000000000003003700000000004f
:1034080001003700000000000080fa0000000600fc
:103418000000fa0080002000c01c88009a23ef00fa
:1034280020022000001d8800a223ef009960a80058
:1034380099e3a8009b43a8009b83a8001068ef00ad
:103448000800370010c8bf000080fb002189200059
:103458000041eb008270780010c8bf000040e8000f
:1034680010e8b70010c8bf00e74f4000f5ff36006e
:103478000468ef000068ef001868ef001968ef00b3
:103488000228ef000080fa00000006000000fa00a1
:103498007fc8bf000080fb00f11c8000014178005c
:1034a800d1032100827078007fc8bf000040e80087
:1034b8007fe8b7000080fa00000006000200fa006a
:1034c800881f7800000f78003200370017c8bf0047
:1034d8000004e0002d003a0010408000ea0f500080
:1034e800010036001668ef0016c8bf000080fb0018
:1034f8001e0440002d000700004c78000228ef0051
:1035080016c8bf000004e0001400320016c8bf004f
:103518000080fb001e00400010407800ea4f500079
:103528000e003a0016c8bf000080fb000000e9004a
:103538001e00400010407800ed4f500007003a0090
:1035480010c0b30017e8b70016c8bf000040e90074
:1035580005e8b7001668ef001100370016c8bf006d
:103568000040e80016e8b70016c8bf00e64f400064
:103578000800360016c8bf000040e90016e8b7008a
:1035880010c0b30019e8b700020037000228ef00a6
:103598000300370000c8bf000004e000cbff3a007a
:1035a8004f0478000080fa00000006000200fa00cc
:1035b8000040eb00004f780000c8bf000004e000a6
:1035c8000e00320018c8bf000080fb00c198200020
:1035d800614f780018c8bf000040e80018e8b7003d
:1035e80018c8bf00e74f4000010036001868ef0018
:1035f80000c8bf000040e90000e8b7001e4078009e
:103608000080fa00000006000400fa001007980085
:103618000040eb00004f7800000000000100370078
:1036280000000000d11c8000001020000080600015
:103638000000e000fbff320000000000a135800020
:1036480000022000008060000000e000fbff3a005c
:103658001e009000104078000000fb00e01c88006d
:103668001e80fb009e009000914078000141780088
:10367800a1ae2000827078001e4fe8001e00900066
:103688000000e800100798001e0090001040780025
:103698000004e000e2ff3a0000000000d11c8000b6
:1036a80000102000008060000000e000fbff3200f6
:1036b8000080fa00000006000400fa0010079800d5
:1036c800e0c1b300004f780000000000010037009f
:1036d80000000000d11c8000001020000080600065
:1036e8000000e000fbff320000000000a135800070
:1036f80000022000008060000000e000fbff3a00ac
:103708001e009000104078000080fb00e01c88003c
:103718001e80fb009e00900011417800a1ae2000a1
:10372800827078001e4fe8001e0090000000e8003c
:10373800100798001e009000104078000004e00078
:10374800e3ff3a0000000000d11c800000102000b8
:10375800008060000000e000fbff32000080fa00fb
:10376800000006000000fa0040ae200001c3b300cc
:103778000148780050ae200001c3b300014878002a
:1037880060ae200001c3b3000148780070ae20008d
:1037980001c3b3000148780080ae20008040eb00f0
:1037a8000148780090ae200031c6b3000148780087
:1037b8000c28ef000080fa00000006000800fa005c
:1037c8001007980021079800624798000040eb0016
:1037d800004f7800090037001e80fb00ae00900003
:1037e800008040009e80fb001e0190008100410087
:1037f80091407800014878001e4fe8006e40900024
:103808009e40780080cf5000f3ff39000080fa0016
:10381800000006000000fa0099e3a9009b43a900f4
:103828000080fa00000006000000fa003868ef0087
:103838003928a9003908a8000080fa00000006000d
:103848000200fa00000f7800403680006400600033
:103858000000e000040032001e00780001c3b3003d
:1038680001487800030037001e00780011c3b30038
:103878000148780040368000680060000000e000e1
:10388800040032001e00e80001c3b30001487800bc
:10389800030037001e00e80011c3b3000148780098
:1038a8004136800000022000008060000000e00037
:1038b800040032001e80e80001c3b300014878000c
:1038c800030037001e80e80011c3b30001487800e8
:1038d80040368000700060000000e0000500320003
:1038e8009e0078006380400001c3b300014878005f
:1038f800040037009e0078006380400011c3b300c5
:10390800014878009e007800658040008040eb0008
:103918000148780050c0b3000080fa00000006009b
:103928000200fa00000f7800d13380000000280060
:10393800008060000000e000040032001e007800f3
:1039480011c3b30001487800030037001e00780057
:1039580001c3b30001487800d1338000000024007f
:10396800008060000000e000040032001e00e80053
:1039780011c3b30001487800030037001e00e800b7
:1039880001c3b30001487800d13380000000220051
:10399800008060000000e000040032001e80e800a3
:1039a80011c3b30001487800030037001e80e80007
:1039b80001c3b30001487800d13380000000210022
:1039c800008060000000e000050032009e007800e2
:1039d8006380400011c3b300014878000400370039
:1039e8009e0078006380400001c3b300014878005e
:1039f8009e007800648040008040eb000148780019
:103a080040c0b3000080fa00000006000800fa0079
:103a1800100798002107980062479800734798009c
:103a28006e4090000004e00033003200c1782800a6
:103a38001e0090006d0c0700004f78004201200026
:103a48008000eb002044210019f40700258820009d
:103a5800448820002344210042c1b30041002000d3
:103a680000c5b3008c060700604521008040eb00cc
:103a7800014878001e80fb009e00900000804000f6
:103a8800214421003a0c07001e4f40001e80fb0015
:103a98009e00900000804000b1792800530c070078
:103aa8001e4f40001e80fb009e00900000804000da
:103ab800800078002e009000a70207001e4f4000eb
:103ac8001e80fb009e00900000804000417a280084
:103ad800460c07001e4f40001e80fb009e00900011
:103ae8008080400040c8bf000041eb00d3030700be
:103af8001e4f40003b013700c17a28001e0090008d
:103b08003a0c0700004f78001e80fb009e009000d2
:103b180000804000800078002e0090008e02070090
:103b28001e4f40001e80fb009e0090000080400059
:103b3800517b28002d0c07001e4f40001e80fb0003
:103b48009e00900000804000a1272100914078004d
:103b5800014878001e4fe8001e80fb009e00900080
:103b6800008040008040eb00014878009e80fb0008
:103b78007e4090000080fb0074005000808f500051
:103b880028003d009029210010407800e34f5000a4
:103b98000d003a001e80fb009e009000008040004f
:103ba800a17b2800110c07001e4f40001e80fb005f
:103bb8009e0090000080400091282100ec0b070037
:103bc8001e4f400017003700d02a2100104078000f
:103bd8000004e0000d0032001e80fb009e009000f3
:103be80000804000a17b2800000c07001e4f400009
:103bf8001e80fb009e00900000804000d12921001b
:103c0800db0b07001e4f4000060037001e80fb003c
:103c18009e00900000804000e17b2800f30b070025
:103c28001e4f40009e80fb007e4090000080fb00fd
:103c380069005000808f50002e003d001e80fb0060
:103c48009e00900000804000317c2800e70b0700b0
:103c58001e4f4000470a0700104798001e4090007a
:103c68000080fb00e10f50000a003200e20f500014
:103c78000e0032000000e00012003a001e80fb0037
:103c88009e00900000804000e1c4b3000148780025
:103c9800120037001e80fb009e009000008040004c
:103ca80031c5b300014878000c0037001e80fb00c6
:103cb8009e00900000804000f1c4b30001487800e5
:103cc800060037001e80fb009e0090000080400028
:103cd800f1c3b30001487800000000001e4fe8005f
:103ce8001e80fb009e009000008040008040eb009a
:103cf800014878009e80fb007e4090000080fb0019
:103d080069005000808f50000e003d001e80fb00af
:103d18009e00900000804000817c2800b30b0700c3
:103d28001e4f40001e80fb009e00900080804000d7
:103d3800c02721001040780032c0b3003f030700bd
:103d48001e4f40009e80fb007e4090000080fb00dc
:103d580069005000808f50000e003d001e80fb005f
:103d68009e00900000804000d17c28009f0b070037
:103d78001e4f40001e80fb009e0090008080400087
:103d8800104280000040780032c0b3002b030700c7
:103d98001e4f40009e80fb007e4090000080fb008c
:103da80069005000808f50000e003d001e80fb000f
:103db8009e00900000804000217d28008b0b0700aa
:103dc8001e4f40001e80fb009e0090008080400037
:103dd800d02721001040780022c0b3001703070045
:103de8001e4f4000319480000000220000806000d7
:103df8000000e000140032009e80fb007e4090002e
:103e08000080fb0069005000808f50000e003d00cc
:103e18001e80fb009e00900000804000717d2800fd
:103e2800720b07001e4f40001e80fb009e00900092
:103e380080804000602821001040780022c0b30034
:103e4800fe0207001e4f40009e80fb007e4090004f
:103e58000080fb0069005000808f50000b003d007f
:103e68001e80fb009e00900000804000d17d28004d
:103e78005e0b07001e4f40001e80fb009e00900056
:103e8800008040006efe07001e4f40009e80fb0031
:103e98007e4090000080fb0069005000808f500039
:103ea8000b003d001e80fb009e009000008040003b
:103eb800217e28004d0b07001e4f40001e80fb008e
:103ec8009e0090000080400095fe07001e4f4000b5
:103ed8009e80fb007e4090000080fb00690050003f
:103ee800808f50000e003d001e80fb009e00900059
:103ef80000804000817e28003c0b07001e4f4000d8
:103f08001e80fb009e00900080804000b0272100aa
:103f18001040780032c0b300c80207001e4f4000ae
:103f28009e80fb007e4090000080fb0069005000ee
:103f3800808f50000d003d001e80fb009e00900009
:103f480000804000e17e2800280b07001e4f40003b
:103f58001e80fb009e0090008080400040c8bf008b
:103f68000041eb00b50207001e4f40009e80fb0099
:103f78007e4090000080fb0069005000808f500058
:103f880018003d001e80fb009e009000008040004d
:103f9800417f2800150b07001e4f400011842000a8
:103fa80091407800a0c5b30080cf500007003a00c8
:103fb8001e80fb009e00900000804000a17f28002a
:103fc8000a0b07001e4f4000060037001e80fb004a
:103fd8009e00900000804000c17f2800030b07006e
:103fe8001e4f40009e80fb007e4090000080fb003a
:103ff80069005000808f50000d003d001e80fb00be
:104008009e00900000804000e17f2800f70a07002a
:104018001e4f40001e80fb009e00900080804000e4
:1040280044c8bf000041eb00840207001e4f400057
:104038006e4090000004e00034003a009e80fb00cf
:104048007e4090000080fb0066005000808f50008a
:104058002e003d001e80fb009e0090000080400066
:1040680041802800e10a07001e4f40009e80fb00a7
:104078007e4090000080fb0069005000808f500057
:104088000e003d001e80fb009e0090000080400056
:1040980091802800d50a07001e4f40001e80fb00b3
:1040a8009e009000808040009036210010407800eb
:1040b8000041eb00610207001e4f40009e80fb009c
:1040c8007e4090000080fb0069005000808f500007
:1040d8000e003d001e80fb009e0090000080400006
:1040e800e1802800c10a07001e4f40001e80fb0027
:1040f8009e00900080804000b0362100104078007b
:104108000041eb004d0207001e4f40000080fa00fe
:10411800000006000000fa00c093800063cab300e4
:104128000041eb00800078007045210037fe070051
:1041380070452100260a070040812800240a07004c
:10414800704521008040eb00014878000080fa00ab
:10415800000006000600fa00100798004147980082
:10416800c19380001e009000008060000000e00005
:1041780003003a000040eb00004f78000b003700c6
:10418800c19380001e0090000080ea00008060005b
:10419800c093880010c0b300004f78004e409000d4
:1041a8000004e00001003200daff07001e4078003a
:1041b8000080fa00000006000600fa0010079800c8
:1041c80041479800c19380001e00900080806000e5
:1041d8001e009000808f500003003a000040eb0062
:1041e800004f78000a003700c19380001e0090003d
:1041f80001007000c093880010c0b300004f780021
:104208004e4090000004e00001003200c1ff0700aa
:104218001e4078000080fa00000006000400fa0042
:1042280010079800618128001e0090006f0a07009f
:10423800004f78001e80fb009e00900080804000a8
:1042480030428000c40007001e4f40001e80fb0063
:104258009e0090000080400021822800630a070029
:104268001e4f40001e80fb009e0090008080400092
:1042780040428000b80007001e4f40001e80fb002f
:104288009e0090000080400091822800570a070095
:104298001e4f40001e80fb009e0090008080400062
:1042a80050428000ac0007001e4f40001e80fb00fb
:1042b8009e00900000804000018328004b0a070000
:1042c8001e4f40001e80fb009e0090008080400032
:1042d80060428000a00007001e4f40001e80fb00c7
:1042e8009e00900000804000618328003f0a07007c
:1042f8001e4f40001e80fb009e0090008080400002
:1043080070428000940007001e4f40001e80fb0092
:104318009e00900000804000c1832800330a0700f7
:104328001e4f40001e80fb009e00900080804000d1
:1043380080428000880007001e4f40001e80fb005e
:104348009e0090000080400021842800270a070072
:104358001e4f40001e80fb009e00900080804000a1
:10436800904280007c0007001e4f40001e80fb002a
:104378009e00900000804000818428001b0a0700ee
:104388001e4f40001e80fb009e0090008080400071
:10439800a0428000700007001e4f400056c8bf00b2
:1043a8000004e000070032001e80fb009e00900021
:1043b80000804000e18428000c0a07001e4f4000de
:1043c800060037001e80fb009e0090000080400021
:1043d80041852800050a07001e4f40001e80fb008b
:1043e8009e00900000804000a1852800ff0907007a
:1043f8001e4f40001e80fb009e0090008080400001
:1044080057c8bf0012c0b3008c0107001e4f400000
:104418001e80fb009e00900000804000218628003e
:10442800f20907001e4f40001e80fb009e0090000e
:1044380080804000c0428000470007001e4f4000b7
:104448001e80fb009e0090000080400081862800ae
:10445800e60907001e4f40001e80fb009e009000ea
:1044680080804000d04280003b0007001e4f400083
:104478001e80fb009e00900000804000e18628001e
:10448800da0907001e4f40001e80fb009e009000c6
:1044980080804000e04280002f0007001e4f40004f
:1044a8000080fa00000006000000fa0070452100b4
:1044b8005aff070070452100450907004081280080
:1044c80043090700704521008040eb00014878004f
:1044d8000080fa00000006000600fa002007980095
:1044e8000040eb0020479800ae009000010f7800d4
:1044f8000c0037002e4090006a00b90000007800d8
:10450800204798001e007800904078002e409000c8
:1045180080c0400000cdb30000c040002047980094
:104528001e0fe8001e00780090407800f0c2b3002b
:1045380080cf5000050036001e00780090407800bb
:1045480090c3b30080cf5000eaff36002e409000a1
:104558000080fa00000006000800fa002007980012
:1045680031079800be009000010f7800ae0090005f
:10457800f0702200808f5000170036002e00900047
:10458800c400de00703420000008b8004308de00d4
:104598000040780002c3b300824040003e00900013
:1045a800014878003e0090000000e80030079800bd
:1045b8002e019000c410de00703420000008b800fe
:1045c800c308de00007122000088b90000007800ee
:1045d8000000510020079800ae009000703e2000b7
:1045e800808f5000180036002e009000c300de00b7
:1045f800500c22000008b8004408de000040780093
:1046080002c3b300824040003e0090000148780099
:104618003e0090000000e800300798002e0190004e
:10462800c310de00500c22000008b800c408de00e9
:10463800803e20000088b90000007800000051008a
:10464800200798000a0037003e0090009e0078007e
:10465800808f5000060032003e00900001c3b30076
:10466800014878003e0090000000e80030079800fc
:10467800ae00900030062000808f500018003600f1
:104688002e009000c200de00b04721000008b800ec
:104698000100d1000040780002c3b300824040000e
:1046a8003e009000014878003e0090000000e800bd
:1046b800300798002e019000c210de00b04721009c
:1046c8000008b8008100d100400620000088b90029
:1046d8000000780000005100200798000a00370009
:1046e8003e0090009e007800808f50000600320047
:1046f8003e00900001c3b300014878003e009000de
:104708000000e800300798002e009000e90f5000e4
:104718000d003600ae009000d0cc2c000008b80088
:104728004308de000040780002c3b3008240400026
:104738003e009000014878003e0090000000e8002c
:10474800300798000a0037003e0090009e0078006d
:10475800808f5000060032003e00900001c3b30075
:10476800014878003e0090000000e80030079800fb
:104778002e019000d0cc2c000010b8004308de00b9
:104788006a00b90000007800000051002007980076
:104798002e0090000040780002c3b3008240400021
:1047a8003e009000014878003e0090000000e800bc
:1047b800300798003e0090008040eb0001487800e8
:1047c8003e009000804078001e007800004078008d
:1047d80000c05000204798002e4090000080fa004a
:1047e800000006000200fa00004f7800f0c2b30093
:1047f8009e40780080cf50000800340090c3b3007a
:104808009e40780080cf500004003c009e40780015
:1048180000cdb30000c040000d00370000c4b30055
:104828009e40780080cf50000800340060c4b30078
:104838009e40780080cf500004003c009e407800e5
:1048480090ccb30000c04000010037000040eb00ee
:104858000080fa00000006000200fa00004f78000d
:104868001e4078000004e000060035001e40780075
:10487800e94f500003003c001e4078000043b000a0
:104888000a0037001e407800e94f50000600340047
:104898001e407800ef4f500003003c001e40780097
:1048a8007043b0000100370000c3b3000080fa0075
:1048b800000006001000fa0060079800614f980099
:1048c8006000b80030079800410798000040eb00ee
:1048d800104798003f0037001e4090000080fb0002
:1048e800ee009000008040009040780000cdb300ba
:1048f80000c04000204f9800100020000100200058
:10490800100798002107980010c0b300004f7800e6
:10491800110037002e0090006a00b90000017800ed
:104928001e0090006000b9000000780000014100fe
:104938009e009000a00020000008b800010141007e
:104948008200780010079800210798001007980047
:10495800210798001e4fe8009e80fb006e489000db
:104968000081fb001e4090000080fb000000510009
:10497800808f5000e7ff35002e4890000080fb0034
:104988008000eb001e0190000191b900020178003f
:10499800ae019000009ab90084017800030141003b
:1049a8009e0190000018b8000101410082007800c3
:1049b8003e019000ce019000020040008380480034
:1049c80030079800410798001e4090000040e8001a
:1049d800104798009e4090006e48900080cf50008d
:1049e800bdff39003e009000ce0090000080fa0024
:1049f800000006000400fa00100798000040eb00d1
:104a0800004f78001e0090000000e000080032000f
:104a1800010037001e4fe8001e80fb009e0090003a
:104a280000804000104078000004e000f9ff3a00e0
:104a38001e4078000080fa00000006000a00fa0014
:104a48004047980031079800024f9800be00900038
:104a5800010f7800ce40900030c6b30080cf5000e0
:104a680003003e000e489000e24f50001900360047
:104a78004e4090000080fb00c200de00b0472100dd
:104a88000008b8000100d1000040780002c3b3005c
:104a9800824040003e009000014878003e009000af
:104aa8000000e800300798004e4090000081fb00ad
:104ab800c210de00b04721000008b8008100d10014
:104ac800400620000088b90000007800000051006e
:104ad800404798004e409000e94f50000e003600c5
:104ae8004e4090008080fb00d0cc2c000008b8001d
:104af8004308de000040780002c3b3008240400053
:104b08003e009000014878003e0090000000e80058
:104b1800300798000d0037003e0090009e00780096
:104b2800808f500003003a000e489000e14f50007b
:104b3800060036003e00900001c3b300014878002b
:104b48003e0090000000e800300798004e409000ba
:104b58000081fb00d0cc2c000010b8004308de0018
:104b68006a00b90000007800000051004047980032
:104b78004e40900002c3b300824040003e009000c7
:104b8800014878003e0090000000e80030079800d7
:104b98003e0090008040eb00014878003e00900005
:104ba800804078001e0078000040780000c0500067
:104bb800204798002e4090000080fa000000060070
:104bc8000e00fa0030079800410798005207980035
:104bd800434f98003e009000ce009000e00f500038
:104be800e08f5800490032004e489000004fe9001d
:104bf8001e80fb00de009000008040008040eb003b
:104c080001487800160037001e4fe9003e0090006a
:104c1800ce009000a20020000300200042ef070011
:104c280010079800210798001e80fb00de00900006
:104c3800008040009e009000814078000143b00051
:104c4800014878003e009000ce009000a2002000ad
:104c58000300200024ef0700300798004107980060
:104c68001e4078000004e000050032003e0090007d
:104c7800ce009000e00f5000e08f5800e2ff3a00ad
:104c88001e4078000004e0001e0032000040eb00e7
:104c9800104798000d0037001e4090000080fb0070
:104ca800de009000008040009e80fb005e019000c6
:104cb8008100410091407800014878001e40900032
:104cc8000040e800104798001e4fe8001e80fb00d7
:104cd800de00900000804000104078000004e000f2
:104ce800edff3a001e4090000080fb00de009000bf
:104cf800008040008040eb00014878001e40900092
:104d08000a0037004e489000080037005e00900007
:104d180001c3b300014878005e0090000000e8007d
:104d28008040eb000148780010c0b3000080fa0012
:104d3800000006000600fa00881f78002047980047
:104d4800210798002e4090006f4f6000ae40900001
:104d580000cfb30000c06000104798001e409000cc
:104d68000080fb004400de00104798001e409000c1
:104d7800b9fe0700ae009000804878002e00900031
:104d88000004e8001e407800b3fe0700004c7800dd
:104d98002e0090000080e8008040eb000148780079
:104da80020c0b3004f0478000080fa00000006001d
:104db8000600fa00200798000000eb001007980092
:104dc800ae009000010f78000c0037001e00900024
:104dd8006a00b90000007800100798001e007800eb
:104de800104078008080fb001e009000008040008a
:104df8000003b100100798001e0fe8001e0078009d
:104e080090407800f0c2b30080cf50000500360013
:104e18001e0078009040780090c3b30080cf500007
:104e2800eaff36001e0090000080fa00000006002d
:104e38000000fa0060572100104078000080fb0055
:104e4800e10f500011003200e10f500003003c0058
:104e58000000e0000400320037003700e20f500085
:104e68001d003200340037002a0207008468ef0072
:104e78008228ef0060572100104078008040e80049
:104e880060572100014878002b003700e04f2100cf
:104e980061c1b300014878002588200044882000bb
:104ea800e34f210012c0b3008000eb0000c5b3003f
:104eb8001501070060572100104078008040e80085
:104ec8006057210001487800a100200060c0b300ad
:104ed8008302070018003700258820004488200036
:104ee8004354210012c0b3008000eb0000c5b3009a
:104ef800690107004054210010407800f64f500027
:104f080004003a007057210011c0b300014878002e
:104f1800030037007057210031c0b3000148780002
:104f280060572100104078008040e8006057210059
:104f380001487800000000000080fa000000060028
:104f48000200fa00000f7800060037001e00780003
:104f5800100078000000e00002003a0010c0b30022
:104f68000a003700d02480007f0060000000e000c5
:104f7800f6ff3a00f1248000000024000080600061
:104f88000000e000f1ff3a000040eb000080fa006a
:104f9800000006000200fa00000f78001e007800ea
:104fa800e7ff0700e14f500002003a0010c0b300cd
:104fb8000d0037009a04a800060037001e0078008c
:104fc800100078000000e00002003a0010c0b300b2
:104fd80005003700d0248000610060000000e00078
:104fe800f6ff3a000040eb000080fa0000000600df
:104ff8000400fa00004f7800110798001e00900086
:10500800cfff0700e14f500002003a0010c0b30084
:105018000b0037009e40780061c060000080fb00f4
:10502800610060004500dd00d12480000150a1002e
:1050380001007000d02488009a84a8000040eb008a
:105048000080fa00000006000200fa00000f780055
:105058001e007800baff0700e14f500002003a0036
:1050680010c0b300030037009aa4a8009a84a800cf
:105078000040eb000080fa00000006000200fa0081
:10508800000f78001e007800adff0700e14f5000c8
:1050980002003a0010c0b3000d0037009a24a8009f
:1050a800060037001e007800100078000000e000bd
:1050b80002003a0010c0b30005003700d024800079
:1050c800620060000000e000f6ff3a000040eb00dc
:1050d8000080fa00000006000400fa00004f780083
:1050e80011479800120798001e00900094ff0700cf
:1050f800e14f500002003a0010c0b3001b00370017
:105108001e409000e14f500005003a001e80fb0051
:10511800000040000000a000b0248800060037000e
:105128001e80fb000000400080007800f00f200087
:1051380000806000b02488001e00900080ff0700f7
:10514800e14f500002003a0010c0b30007003700da
:105158001e00900038000700e14f500002003a009e
:1051680010c0b300010037000040eb000080fa00d7
:10517800000006000400fa00004f780011079800ac
:105188001e0090006eff0700e14f500002003a0039
:1051980010c0b3000f0037001e80fb00b024880049
:1051a8001e00900066ff0700e14f500002003a0021
:1051b80010c0b300070037001e0090001e00070053
:1051c800e14f500002003a0010c0b3000100370060
:1051d8000040eb000080fa00000006000200fa0020
:1051e800000f78001e00780055ff0700e14f5000bf
:1051f80002003a0010c0b3000d0037009a44a8001e
:10520800060037001e007800100078000000e0005b
:1052180002003a0010c0b30005003700d024800017
:10522800640060000000e000f6ff3a000040eb0078
:105238000080fa00000006000200fa00000f780063
:105248001e0078003eff0700e14f500008003a00ba
:1052580010c0b3000d0037001e0078001000780061
:105268000000e00003003a0010c0b3000700370058
:1052780000000000f1248000000028000080600089
:105288000000e000f4ff3a000040eb000080fa0064
:10529800000006000200fa00000f78001e007800e7
:1052a80027ff0700e14f500002003a0010c0b3008a
:1052b800130037009a64a800060037001e00780023
:1052c800100078000000e00002003a0010c0b300af
:1052d8000b003700d0248000680060000000e00068
:1052e800f6ff3a001e00780015ff0700e14f500056
:1052f80002003a0010c0b300010037000040eb0084
:105308000080fa00000006000e00fa00204798000e
:1053180021079800624798004307980054079800af
:10532800650798006e00900041062000010878008b
:105338005e00900011c0b300014878006e00900034
:10534800fffe0700e14f5000440032005e0090006d
:1053580021c0b300014878006e0090000dff0700df
:10536800e14f50003f0032005e00900031c0b300b2
:10537800014878006e0190008040eb002e409000bc
:1053880055ff0700e14f5000380032005e009000e2
:1053980041c0b300014878002e4090008080fb0097
:1053a80000052000808f500008003a002e00900071
:1053b8004800de00004f7800ee0090001e407800a4
:1053c8006cff0700e14f50002a0032002e009000c9
:1053d80000407800ee00900066ff0700e14f5000a3
:1053e800260032005e00900051c0b30001487800ea
:1053f8000040eb00004f7800090037001e80fb00da
:10540800ce0090000080400010407800ee00900030
:1054180058ff0700e14f50001a0032001e4fe80005
:105428006e4090009e40780080cf5000f3ff390016
:105438005e00900061c0b300014878006e009000e3
:1054480066ff0700e14f5000100032005e00900038
:105458008040eb00014878000d0037000000000094
:105468000b003700000000000900370000000000b2
:1054780007003700000000000500370000000000aa
:1054880003003700000000000100370000000000a2
:105498000080fa00000006000e00fa00204798007d
:1054a800210798006247980043079800540798001e
:1054b800650798006e0090004106200001087800fa
:1054c8005e00900011c0b300014878006e009000a3
:1054d8009bfe0700e14f5000670032005e0090001d
:1054e80021c0b300014878006e009000a9fe0700b3
:1054f800e14f5000620032005e00900031c0b300fe
:10550800014878006e0190008040eb002e4090002a
:10551800f1fe0700e14f50005b0032005e00900092
:1055280041c0b300014878002e4090008080fb0005
:1055380000052000808f500008003a002e009000df
:105548004800de00004f7800ee0090001e40780012
:1055580008ff0700e14f50004d0032002e00900078
:1055680000407800ee00900002ff0700e14f500075
:10557800490032005e00900051c0b3000148780035
:105588006e009000bdfe0700e14f5000440032005d
:105598005e00900061c0b300014878006e01900081
:1055a80011c0b3002e409000cbfe0700e14f500021
:1055b8003d0032005e00900071c0b30001487800e1
:1055c8000040eb00004f78001c0037006e00900090
:1055d80030ff0700e14f5000350032001e80fb000d
:1055e800ce00900000804000a12480008140780017
:1055f800014878001e80fb008000e8006e409000a3
:105608000080fb00808f500006003a00ee009000fa
:1056180010c0b30076fe0700e14f500006003a00c4
:1056280028003700ee0090000040eb0070fe0700f5
:10563800e14f5000200032001e4fe8006e409000fd
